:020000040800F2
:1000000018AF0020CD0100080F2800081B230008AE
:100010000D280008DD030008412C00080000000046
:10002000000000000000000000000000412800085F
:10003000A704000800000000112800084328000859
:10004000E7010008E7010008E7010008E7010008F0
:10005000E7010008E7010008E7010008E7010008E0
:10006000E7010008E7010008E7010008350400087F
:10007000410400084D040008E70100085904000885
:100080006504000871040008E7010008E7010008A2
:10009000352C00081D040008E7010008E7010008EE
:1000A000E7010008E7010008E7010008E701000890
:1000B000E7010008E7010008E7010008E701000880
:1000C000E7010008E7010008E7010008E701000870
:1000D000E7010008E7010008E7010008E701000860
:1000E000E7010008E7010008E7010008E701000850
:1000F000E7010008E7010008E7010008E701000840
:10010000E7010008E7010008E7010008E70100082F
:10011000E7010008E7010008A9280008E701000836
:10012000E7010008E7010008E7010008E70100080F
:1001300000F002F800F03AF80AA090E8000C8244BF
:100140008344AAF10107DA4501D100F02FF8AFF29C
:10015000090EBAE80F0013F0010F18BFFB1A43F0A5
:1001600001031847C0440000E0440000103A24BFD7
:1001700078C878C1FAD8520724BF30C830C144BF0C
:1001800004680C607047000000230024002500264E
:10019000103A28BF78C1FBD8520728BF30C148BFEA
:1001A0000B6070471FB51FBD10B510BD00F058F8AB
:1001B0001146FFF7F7FF03F089F900F076F803B472
:1001C000FFF7F2FF03BC00F07DF80000094880470C
:1001D00009480047FEE7FEE7FEE7FEE7FEE7FEE729
:1001E000FEE7FEE7FEE7FEE704480549054A064B41
:1001F00070470000A52800083101000818A9002058
:1002000018AF002018AB002018AB00204FF0000200
:1002100000B5134694469646203922BFA0E80C50FC
:10022000A0E80C50B1F12001BFF4F7AF090728BFD7
:10023000A0E80C5048BF0CC05DF804EB890028BF53
:1002400040F8042B08BF704748BF20F8022B11F07C
:10025000804F18BF00F8012B7047704770477047F8
:10026000754600F02BF8AE4605006946534620F06F
:100270000700854618B020B5FFF7B6FFBDE820405F
:100280004FF000064FF000074FF000084FF0000B52
:1002900021F00701AC46ACE8C009ACE8C009ACE805
:1002A000C009ACE8C0098D46704710B50446AFF3ED
:1002B00000802046BDE81040FFF781BF004870472E
:1002C000B4A8002001491820ABBEFEE726000200BA
:1002D000704700214171017081704170C1700171DE
:1002E0008171C1714173017281724172C172017376
:1002F0008173C1734175017481744174C174017556
:100300008175C1754177017681764176C176017735
:100310008177C17780F8251080F8201080F82210AE
:1003200080F8211080F8231080F8241080F826101F
:1003300080F82710704700000749064808230A6A1A
:100340000260496A41600146012240F2051000F056
:1003500017B800003800002089A80020074B00B51E
:100360001921A0F540705981053805D103F12A0003
:1003700003F09AF80020188100BD000058A8002062
:1003800030B589B0002402940090CDE90343087889
:100390008DF8180048788DF8190088788DF81A00C3
:1003A000C8788DF81B0008798DF81C0048798DF805
:1003B0001D0088798DF81E00C8798DF81F00012A6C
:1003C00006D108AB6946044806AA00F081F8054644
:1003D00009B0284630BD000054000020FEE70000B0
:1003E00000B58BB00020012103900490CDE90810E6
:1003F000019002900090CDE90601059069460648FB
:1004000000F0D4F80221044800F050F8024800F04F
:10041000A7FB0BB000BD000054000020014800F015
:10042000B1B90000540000200149FFF797BF000058
:1004300030000020014800F05FBC000038030020BD
:10044000014800F059BC0000E4010020014800F020
:1004500053BC000028020020014800F04DBC000001
:100460006C020020014800F047BC0000F4020020AC
:10047000014800F041BC0000B002002030B590F807
:1004800040500124AC40C56B6C60046863604368F5
:10049000102B036803D099600068C26030BD9A6079
:1004A0000068C16030BD704772B6FEE790F820204A
:1004B000012A07D0022A05D0416A41F48021416215
:1004C00001207047006842690A434261002070477A
:1004D000F0B590F820500468A468012D05D0022DD5
:1004E00003D0416A41F480215DE014F0406F01D1F6
:1004F000E50055D5C4F30164022C03D9416A41F4E7
:10050000000150E00125A5401D608D684FF4C073C7
:100510009DB1CE6835434E6845EAC605066803EBD3
:100520000417F5514FF4C275076805EB04150E6901
:100530007E51097D012905D009E00E88CD6845EA84
:100540004655EBE701684E5946F480764E511179D5
:10055000D579567941EA056195792D0445EA062554
:1005600029434FF4C676056806EB0416A9511178A5
:10057000D57841EA0561957852782D0445EA022242
:1005800011434FF4C475026805EB0415515100681E
:1005900003EB0411425842F0010242500020F0BD2A
:1005A000416A41F4001141620120F0BD10B590F89C
:1005B00020300268012B07D0022B05D0416A41F49C
:1005C00080214162012010BDD2F8000240F00100FC
:1005D000C2F80002087D00F01F0301209840D2F805
:1005E0001C328343C2F81C32CB69B3B9D2F80C3247
:1005F0008343C2F80C328C894B6864F31F434C6907
:1006000002EBC404C4F840320C890B6864F31F4346
:100610004C6902EBC404C4F84432CB69012B16D1F7
:10062000D2F80C320343C2F80C320C884B6864F3E6
:100630001F434C6902EBC404C4F840320C89CB68F8
:1006400064F31F434C6902EBC404C4F844328B6961
:10065000002BD2F804320FD053EA0003C2F8043260
:100660000B69002BD2F8143208D00343C2F81432BD
:10067000096A012904D008E08343EFE78343F5E7E3
:10068000D2F81C120143C2F81C12D2F8000220F06A
:100690000100C2F80002002010BD704730B590F88C
:1006A0002040012C05D0022C03D0416A41F4802166
:1006B0005DE00468002955D02469A40754D04FF4A4
:1006C000D874056804EB01142D5915F004059560E4
:1006D00005682D594ED0ED08556005682C5904F079
:1006E0000204D4604FF4DA74056804EB01142D5948
:1006F00005F00F05156105682D59C5F307259561AE
:1007000005682C59240C54614FF4DC72046802EB28
:100710000112A4581C700468A458240A5C70046870
:10072000A458240C9C700468A258120EDA704FF47E
:10073000DE72046802EB0112A4581C710468A4580C
:10074000240A5C710468A458240C9C710468A258A3
:10075000120EDA71006881B1016941F02001016176
:10076000002030BDE468A8E7416A41F4001141620D
:10077000012030BD6D0D1560AFE7C16841F020016B
:10078000C160EDE72DE9F05F054600680024466989
:10079000D0F804908768D0F80CB0D0F810A0D0F84A
:1007A0001880F10748D0F90714D001218160B807FB
:1007B00003D5284600F001FA0CE0780702D54FF483
:1007C000006407E0380702D54FF4805402E0284661
:1007D00000F0F2F9F80516D529684FF480708860AA
:1007E000B80503D5284600F0EAF90CE0780502D5F3
:1007F00044F4005407E0380502D544F4804402E094
:10080000284600F0DBF9F80316D529684FF480304C
:100810008860B80303D5284600F0D3F90CE07803CC
:1008200002D544F4004407E0380302D544F4803490
:1008300002E0284600F0C4F9300707D55FEACB6034
:1008400004D52968102044F40074C86070074FF084
:10085000080707D55FEA0B7004D52868C7602846EB
:1008600000F062F9B00706D52868C068800702D09A
:10087000284600F05BF9700607D55FEACA6004D528
:100880002968102044F480640861B00607D55FEA47
:100890000A7004D528680761284600F05DF9F00663
:1008A00006D528680069800702D0284600F055F96F
:1008B000B00308D55FEAC96005D5296810204860F3
:1008C000284600F04BF9F00307D55FEA097004D51C
:1008D00028684760284600F075F9300446D55FEA7D
:1008E000497040D5F00504D55FEAC87001D044F0E6
:1008F0000104B00504D55FEA887001D544F0020414
:10090000700504D55FEA487001D544F00404300551
:1009100029D518F0700F26D008F07000402815D0A7
:1009200006DC102809D020280AD0302816D10AE089
:1009300050280ED0602811D10EE044F008040DE0DC
:1009400044F010040AE044F0200407E044F04004BE
:1009500004E044F0800401E044F480742868816974
:1009600021F070018161296804204860002C05D0C5
:10097000686A204368622846FFF78FFEBDE8F09F53
:1009800070B5040003D094F8200010B104E00120F9
:1009900070BD204600F082F82068016841F0010136
:1009A000016000F057FC0546052604E000F052FC0B
:1009B000401B0A2811D820684068C007F6D020687C
:1009C000016821F00201016000F044FC05460BE0E3
:1009D00000F040FC401B0A2806D9606A40F4003051
:1009E000606284F82060D2E7206840688007EFD416
:1009F000207E0128206801683DD021F0800101603F
:100A0000607E01282068016838D021F04001016033
:100A1000A07E01282068016833D021F02001016008
:100A2000E07E0128206801682ED041F010010160AD
:100A3000207F01282068016829D021F00801016089
:100A4000607F01282068016824D021F00401016042
:100A5000D4E902010843D4E9041211430843616850
:100A6000491E08432168C86100206062012084F8A3
:100A70002000002070BD41F08001C0E741F040013E
:100A8000C5E741F02001CAE721F01001CFE741F0AE
:100A90000801D4E741F00401D9E7000010B586B0A1
:100AA0000021009101910291039100681B49884245
:100AB00032D11B48C16941F00071C161C16901F0C7
:100AC00000710491816941F0040181618069154CD4
:100AD00000F0040004904FF4006000906946204646
:100AE00000F0B6FAA01400900220019003200390B9
:100AF0006946204600F0ACFA00221146142000F0AE
:100B000015FC142000F004FC00220521152000F043
:100B10000DFC152000F0FCFB06B010BD0064004089
:100B200000100240000801407047000010B507495E
:100B300002688A4209D1064B064A0021FFF7AEFD42
:100B4000044803490068FFF76FFC10BD00640040D3
:100B5000300000203CA8002070477047704700001C
:100B600070B5044690F82000012804D0606A40F473
:100B70000020606218E0022084F8200020680168EC
:100B800021F00101016000F065FB05460EE000BFA9
:100B900000F060FB401B0A2808D9606A40F400306E
:100BA0006062052084F82000012070BD2068406844
:100BB000C007EDD1606270BD7047704770477047E5
:100BC00070477047704700002DE9F05F90F82110E2
:100BD0000024022903D004218163012485E00168F7
:100BE0000A6822F00E020A6001680A6822F0010217
:100BF0000A603F4E3E4FB215DFF8F4C0DFF8F090C8
:100C0000DFF8ECA0DFF8E8B0DFF8E4E00168783F57
:100C100013011502ACF1640CA9F15009AAF13C0AC8
:100C2000ABF1280BAEF1140E4FF48018B14227D966
:100C3000B9420ED0614512D049451DD0514518D05A
:100C4000594518D0714501D1424615E0294EB142AF
:100C500001D1012210E0274E1436B14201D11022F9
:100C60000AE0244E2836B14206D0224A3C32914254
:100C700001D11A4600E02A461E49091F0A602BE0EE
:100C8000B94213D0614517D0494522D051451DD0F6
:100C900059451DD0714501D142461AE0B14202D1F9
:100CA0004FF0807215E0134EB14201D1012210E0E5
:100CB000104E1436B14201D110220AE00D4E2836F2
:100CC000B14206D00B4A3C32914201D11A4600E0B3
:100CD0002A46074980394A60012180F82110002105
:100CE00080F82010416B01B188472046BDE8F09F95
:100CF00080000240080402402DE9F05FC16B0A68E1
:100D000001680B68046C4FF0040808FA04F8844D7D
:100D1000844E854FDFF814C2DFF81492DFF814A276
:100D2000DFF814B2DFF814E218EA020F65D05FEAC8
:100D3000437862D50A68920603D40A6822F0040256
:100D40000A60DFF8F0814FF48062016808F114084E
:100D500013011402414524D9A9420DD0B1420FD04C
:100D6000B9421AD0614515D0494515D0514501D138
:100D7000120312E0594501D104220EE0714501D160
:100D800040220AE06D4D1435A94206D06B4A283244
:100D9000914201D11A4600E022466749091F0A60C4
:100DA00029E0A94213D0B14215D0B94220D0614503
:100DB0001BD049451BD0514502D14FF4800217E0AA
:100DC000414502D14FF0806212E0594501D1042221
:100DD0000EE0714501D140220AE0584D1435A94278
:100DE00006D0564A2832914201D11A4600E02246E6
:100DF0004B4908394A60C16A71E04FF0020808FAAD
:100E000004F818EA020F70D05FEA83786DD50A689B
:100E1000920606D40A6822F00A020A60012180F8CC
:100E20002110DFF810814FF40072016808F11408F6
:100E300013011402414524D9A9420DD0B1420FD06B
:100E4000B9421AD0614515D0494515D0514501D157
:100E5000120312E0594501D102220EE0714501D181
:100E600020220AE0354D1435A94206D0334A2832F3
:100E7000914201D11A4600E022462F49091F0A601B
:100E800029E0A94213D0B14215D0B94220D0614522
:100E90001BD049451BD0514502D14FF4001217E039
:100EA000414502D14FF0007212E0594501D10222B2
:100EB0000EE0714501D120220AE0204D1435A942EF
:100EC00006D01E4A2832914201D11A4600E022463D
:100ED000134908394A60002180F82010816A0029EE
:100EE0001CD0BDE8F05F0847FFE70825A540154284
:100EF00014D01A0712D50A6822F00E020A6090F880
:100F00004020C36B012101FA02F25A60816380F82C
:100F10002110002180F82010016BE0E7BDE8F09F70
:100F2000080002401C000240300002404400024021
:100F3000580002406C000240080402401C040240B9
:100F400030B560B11A4B026814219A4209D2194B8C
:100F50001344B3FBF1F18900016417490AE0012051
:100F600030BD134B5B421344B3FBF1F189000164C4
:100F70000F490839C163022180F82110136843F634
:100F8000F0718B43F0E901142143D0E902452C4371
:100F9000214304692143446921438469214319435E
:100FA000116000214163012242770177084630BD7C
:100FB00008040240F8FFFDBF0000024070B504467F
:100FC00090F82000002501280CD0012084F8200092
:100FD00094F821600020012E06D084F8200002251C
:100FE000284670BD022070BD022684F82160A063EF
:100FF0002068066826F0010606602046FFF73EFAE4
:10100000E06A00282068016802D041F00E0106E085
:1010100021F0040101602068016841F00A010160CB
:101020002068016841F001010160D9E770B504460C
:1010300000F010F90546601C02D004480078044412
:1010400000F008F9401BA042FAD370BD1000002048
:101050002DE9F84FDFF8C891002409F1040A0AF1DC
:10106000040B23460F270BF1040ED1E00125A54008
:1010700006EA0502AA4276D1DFF8A8C14E68A6EBBF
:101080000C0866452BD00DDC032E34D005DC36B3BE
:10109000012E19D0022E2FD11BE0112E16D0122EA8
:1010A0002AD119E0B8F5881F19D006DCB8F5803FC1
:1010B00015D0B8F5801F1FD111E0B8F5001F0ED074
:1010C000B8F5041F18D10AE0CB6815E0CB681B1DEA
:1010D00012E0CB6808330FE0CB680C330CE08B6870
:1010E0002BB1012B4FF0080303D0456104E004232A
:1010F00002E0056100E00023FF2A01D8064601E076
:1011000000F104064FEA840501D9A5F12005D6F8BF
:10111000008007FA05FC28EA0C0803FA05F548EAFE
:101120000508C6F800804D68ED0070D53E4DAE69EB
:1011300046F00106AE61AD6924F0030605F0010535
:1011400000953A4D06EB050CDCF80850A607360F63
:1011500007FA06F825EA0805DFF8D480404503D1F0
:101160004FF0000825E052E0DFF8C880404502D18A
:101170004FF001081DE0DFF8C080404502D14FF07C
:10118000020816E0DFF8B480404502D14FF00308B2
:101190000FE0DFF8AC80404502D14FF0040808E0D2
:1011A000DFF8A080404502D14FF0050801E04FF084
:1011B000060808FA06F848EA0508CCF808804D68E1
:1011C000D9F80060ED034D4601D5164300E0964383
:1011D0002E604D68DAF80060AD03554601D5164320
:1011E00000E096432E604D68DBF80060ED025D463E
:1011F00001D5164300E096432E604D68DEF800608E
:10120000AD02754601D5164300E096432E60641C7E
:101210000A681646E2407FF429AFBDE8F88F000067
:1012200000040140000011100010024000000140C5
:1012300000080140000C0140001001400014014072
:1012400000180140001C01408068084000D00120C7
:1012500070470000014880687047000010000020BF
:1012600002488168027811448160704710000020B4
:10127000074810B5016841F010010160032000F03B
:1012800075F80F2000F006F800F024F8002010BDDB
:101290000020024070B50D4D04464FF47A71287855
:1012A000B1FBF0F00A490968B1FBF0F000F0CCFAAC
:1012B00048B9102C07D200222146501E00F036F803
:1012C00000206C6070BD012070BD00001000002087
:1012D0001C0000200C4808B5816941F001018161C2
:1012E000816901F001010091C16941F08051C16142
:1012F000C06900F0805000900448416821F0E0612E
:1013000041F00071416008BD001002400000014042
:10131000002809DB00F01F020121914040098000F4
:1013200000F1E020C0F8001170470000F0B40E4B4F
:101330001B680C46C3F30223C3F10705042D00D933
:101340000425191D072901D2002300E0DB1E012618
:1013500006FA05F1491E214099409E40761E16402E
:101360003143F0BC01F0DDBF0CED00E0064900F0B8
:10137000070208684FF6FF03184040EA0220034ABC
:1013800010430860704700000CED00E00000FA0513
:101390002DE9F0470F46050061D0434E306800F05C
:1013A0000700B84209D2306820F0070038433060A7
:1013B000306800F00700B84251D128683B4C8107E3
:1013C00012D5400703D5606840F4E060606028787B
:1013D000000703D5606840F4605060606068A968E9
:1013E00020F0F000084360602878C00728D06868C3
:1013F000012810D02168022810D0890700292EDA90
:10140000616821F0030101436160FFF723FF80461B
:1014100041F288390DE021688903EFE78901EDE7A2
:10142000FFF718FFA0EB0801494502D90320BDE8EA
:10143000F0876068696800F00C00B0EB810FEFD1B5
:10144000306800F00700B8420BD9306820F0070080
:1014500038433060306800F00700B84201D0012006
:10146000E5E72878400705D56068E96820F4E06082
:10147000084360602878000706D56068296920F471
:10148000605040EAC100606000F018F86168084AE6
:10149000C1F30311515CC840064908600648006862
:1014A000FFF7F8FE0020C2E70020024000100240D3
:1014B000144600081C0000201400002012A185B072
:1014C0000FC98DE80F0014A0144A006804905168F9
:1014D000134801F00C03042B10D0082B0ED1C1F3DC
:1014E0008343C9031DF803000AD5516804AAC1F358
:1014F0004041515C0A4A5043B0FBF1F005B07047DF
:1015000008494843FAE700000203040506070809F2
:101510000A0B0C0D0E0F101001020000001002400B
:1015200000127A0000093D002DE9F84F040070D048
:101530002078C04DC00749D06868C0F381000128F9
:1015400007D06868C0F38100022809D16868C00329
:1015500006D52868800339D560680028E7D035E0D3
:101560006068B0F5803F0BD010B1B0F5A02F11D05E
:10157000286820F480302860286820F4802002E069
:10158000286840F480302860606890B1FFF762FE00
:1015900006460AE0286840F480202860F0E700BF93
:1015A000FFF758FE801B642873D828688003F7D59E
:1015B0000CE0FFF74FFE064605E000BFFFF74AFECE
:1015C000801B6428F0D828688003F7D420789A4ECE
:1015D00080074FF001094FF0000839D5686810F016
:1015E0000C0F07D06868C0F38100022809D1686831
:1015F000C00306D42868800714D52069012808D1C3
:1016000010E02069B0B1C6F80090FFF723FE07464E
:1016100005E00AE1FFF71EFEC01B0228C4D82868B7
:101620008007F7D52868616920F0F80040EAC1001A
:1016300028600DE0C6F80080FFF70CFE074604E0C6
:10164000FFF708FEC01B022823D828688007F7D4BC
:10165000207800072CD57948A169D9B1C0F800904D
:10166000FFF7F8FD074604E0FFF7F4FDC01B022872
:101670000FD8686A8007F7D571484FF4FA510068AF
:10168000B0FBF1F0009000BF0098411E0091FAD22B
:101690000EE080E0C0F80080FFF7DCFD074604E0C4
:1016A000FFF7D8FDC01B022875D8686A8007F7D4F9
:1016B0002078400760D5E8690027C00008D4E869B1
:1016C00040F08050E861E869012700F08050009008
:1016D0005C480168C90513D40168834641F48071F0
:1016E0000160FFF7B7FD824606E000BFFFF7B2FDDD
:1016F000A0EB0A0064284ED8DBF80000C005F5D541
:10170000E06801280AD008B1052813D0286A20F023
:1017100001002862286A20F0040002E0286A40F0F4
:1017200001002862E06841F2883B98B1FFF792FD22
:1017300082460BE0286A40F004002862EEE700BF12
:10174000FFF788FDA0EB0A0159455AD8286A80079F
:10175000F6D50CE0FFF77EFD824605E0FFF77AFD47
:10176000A0EB0A0159454CD8286A8007F6D41FB16E
:10177000E86920F08050E861E06988B36968C1F3E6
:101780008101022944D00228C6F8608004D0FFF706
:1017900061FD044638E034E0FFF75CFD074604E0F5
:1017A000FFF758FDC01B02282BD828688001F7D40A
:1017B000206AB0F5803F05D16868A16820F4003048
:1017C00008436860D4E908010843696821F474118A
:1017D00008436860C6F86090FFF73CFD044606E0E9
:1017E00025E000BFFFF736FD001B022809D8286856
:1017F0008001F7D51BE000BFFFF72CFD001B02287E
:1018000002D90320BDE8F88F28688001F4D40EE0E7
:101810000128F7D06868226A00F48031914204D12F
:10182000616A00F47010884201D00120EAE70020CC
:10183000E8E70000001002400000424280044242FB
:101840001C0000200070004010B5401EB0F1807FE9
:1018500001D3012010BD4FF0E02460610F2160171B
:1018600001F05FFD0020A06107202061002010BD75
:101870007047704710B590F83C20012A22D0012211
:1018800080F83C20CA688C6822F4407222434C687D
:1018900022F4806222430C6822F4006222430C6925
:1018A00022F4805222434C6922F400522243C96937
:1018B000002322F480420A4301684A6480F83C30E5
:1018C000002010BD022010BD70B590F83C20012A08
:1018D0002CD0012480F83C40022280F83D2003688F
:1018E0005A689D6822F070060A6832435A60104BAD
:1018F00002689A420ED00F4B9A420BD0B2F1804F41
:1019000008D00D4B9A4205D00C4B9A4202D00C4B9A
:101910009A4204D1496825F080031943916080F808
:101920003D40002180F83C10084670BD022070BD8B
:10193000002C014000340140000400400008004039
:10194000000C004010B5040003D094F83D0010B125
:1019500007E0012010BD002084F83C00204600F084
:101960001FF8022084F83D00211D206800F0A2FF2E
:10197000012084F8460084F83E0084F83F0084F893
:10198000400084F8410084F8420084F8430084F861
:10199000440084F8450084F83D00002010BD00009C
:1019A0002DE9F84F80220446DFF830C105684C4B22
:1019B00000275600D00020214FF010084FF4805E21
:1019C000654537D19D6945F400659D619B69464D2C
:1019D00003F400630093434BC5E900380023C5F8C6
:1019E0001CE0C5E90232074605F1100C8B468CE875
:1019F000C0089146F2462846FFF7A2FA08B1FEF762
:101A000053FD65626C62384D364844351430C5E983
:101A100000080020C5F81CA0C5E9020905F1100165
:101A2000284681E8C008FFF78BFA08B1FEF73CFDB5
:101A3000A5624FE0B5F1804F14D02C4885424AD1C1
:101A4000D86940F01000D861D869002200F0100079
:101A5000009011463620FFF769FCBDE8F84F3620AC
:101A6000FFF756BCDD6945F00105DD61DB691E4D00
:101A700003F00103009388351A4BAF603C33914665
:101A800068619A15C5E90392C5E90038C5E9061EE3
:101A900083468A4676462846FFF752FA08B1FEF793
:101AA00003FD65626C62104D0E48CC356430AF604A
:101AB000C5E900088015C5F814B0C5E90390C5E96B
:101AC00006A62846FFF73CFA08B1FEF7EDFCA56232
:101AD0006C6225636C62BDE8F88F0000002C014049
:101AE000001002401C000240E401002000100040F1
:101AF00090F83D10012901D001207047022180F8A3
:101B00003D100168CA6842F00102CA6000680E49CF
:101B100088420ED00D4988420BD0B0F1804F08D0DA
:101B20000B49884205D00B49884202D00A498842B5
:101B300004D1816801F00701062903D0016841F052
:101B40000101016000207047002C01400034014079
:101B50000004004000080040000C004070B504463E
:101B600090F83C00012817D0012584F83C50022051
:101B700084F83D002068826822F0770222F47F42D8
:101B800082600868502830D00DDC20284DD005DC5C
:101B900098B310283BD148E0022070BD302844D0D3
:101BA000402834D139E0602828D0702806D0B0F51C
:101BB000805F2CD0B0F5005F29D10AE0CB68D1E975
:101BC0000121206800F03EFF2068816841F0770124
:101BD00009E0CB68D1E90121206800F033FF2068DB
:101BE000816841F48041816011E0CA6849682068D9
:101BF00000F0FCFF5021206807E016E0CA68496841
:101C0000206801F004F86021206800F025FF84F8C6
:101C10003D50002084F83C0070BDCA6849682068C7
:101C200000F0E4FF40212068EFE7226801461046FB
:101C3000EBE77047704770B50446006801694FF0E4
:101C40000005C943890715D4C168C943890711D460
:101C5000E91E016101202077206880698007204605
:101C600002D0FFF7E7FF04E000F004F9204600F09F
:101C700009FA257720680169C943490717D4C16863
:101C8000C943490713D46FF0040101610220207792
:101C90002068806910F4407F204602D0FFF7CAFF19
:101CA00004E000F0E7F8204600F0ECF92577206822
:101CB0000169C943090716D4C168C943090712D489
:101CC0006FF008010161042020772068C069800757
:101CD000204602D0FFF7AEFF04E000F0CBF820462C
:101CE00000F0D0F9257720680169C943C90617D4E7
:101CF000C168C943C90613D46FF0100101610820FF
:101D000020772068C06910F4407F204602D0FFF79A
:101D100091FF04E000F0AEF8204600F0B3F925771B
:101D200020680169C943C90708D1C168C943C90707
:101D300004D1891E0161204600F0D4FA20680169AF
:101D4000C943090609D4C168C943090605D46FF01F
:101D5000800101612046FFF78BFD20680169C943BE
:101D6000490609D4C168C943490605D46FF040014A
:101D70000161204600F0D0FA20680169C943890654
:101D80000BD4C168C943890607D46FF020010161F3
:101D90002046BDE87040FFF76CBD70BD10B586B041
:101DA000002100910191029103912A4C03682A4974
:101DB00002222A48A3420AD18B6943F004038B61B3
:101DC000896901F0040104914FF4407129E0B3F1F5
:101DD000804F1DD0224C4020A3422AD18B6943F072
:101DE00010038B618969CDE9000201F01001CDE992
:101DF000032169461B48FFF72BF91B48416821F472
:101E0000406141F0E06141F44061416006B010BDC5
:101E10008B6943F004038B61896901F0040104912B
:101E20000321CDE900126946CDF80C20FFF710F927
:101E3000ECE70E4CA342E9D18B6943F008038B61B8
:101E40008969CDE9000201F00801CDE90321694665
:101E50000748EBE7002C0140001002400008014059
:101E60000004004000100140000001400008004054
:101E7000000C0140704770B5044690F83C000D46D8
:101E800001280AD0012084F83C0042B1042A18D06D
:101E9000082A2AD00C2A4DD139E0022070BD2068D2
:101EA00000F0E2FD2068816941F00801816120684D
:101EB000816921F004018161206881692A691143E7
:101EC00011E0206800F000FE2068816941F40061A3
:101ED00081612068816921F4806181612068816964
:101EE0002A6941EA0221816124E0206800F022FE93
:101EF0002068C16941F00801C1612068C16921F011
:101F00000401C1612068C1692A69114311E0206898
:101F100000F044FE2068C16941F40061C16120689D
:101F2000C16921F48061C1612068C1692A6941EAFF
:101F30000221C161002084F83C0070BD10B504008E
:101F400003D094F83D0010B107E0012010BD00203F
:101F500084F83C00204600F01FF8022084F83D0081
:101F6000211D206800F0A6FC012084F8460084F8BA
:101F70003E0084F83F0084F8400084F8410084F873
:101F8000420084F8430084F8440084F8450084F853
:101F90003D00002010BD00002DE9F04F85B0002766
:101FA00000970197029703970546304A0168304829
:101FB00080264FF010084FF480794FF4806A4FF07C
:101FC000200B91421DD1C16941F00201C161C0697C
:101FD000294C00F0020004902648A760C4E90008DC
:101FE0008014C4E906B004F10C01204681E84006E3
:101FF000FEF7A6FF08B1FEF757FA6C626562AC63A4
:102000002FE01E4A91422DD1C16941F00401C16106
:10201000C16901F004010491816941F00801816105
:102020008069694600F0080004900220CDE9006054
:1020300003901348FFF70CF80F4C0E4844346438F3
:10204000A760C4E900088014C4E906B004F10C01DB
:10205000204681E84006FEF773FF08B1FEF724FA38
:102060006C62656205B0BDE8F08F000000040040BE
:10207000001002406C000240F40200200008004002
:10208000000C0140704770472DE9F04117460D00E4
:1020900004460CD0042D11D0082D16D094F8410020
:1020A000022819D094F84100012818D0A2E094F831
:1020B0003E00022810D094F83E00F5E794F83F0067
:1020C000022809D094F83F00EEE794F84000022877
:1020D00002D094F84000E7E70220BDE8F0810FB994
:1020E000002B5BD14749484E484A022045B1042D98
:1020F00016D0082D24D084F841000C2D3AD16CE084
:1021000084F83E00606A8162606A3946C662606A2D
:1021100002632268606A3432FEF750FFF0BB1FE0B2
:1021200084F83F00A06A8162A06A3946C662A06A4C
:1021300002632268A06A3832FEF740FF70BB14E0E9
:1021400084F84000E06A8162E06A3946C662E06A6B
:1021500002632268E06A3C32FEF730FFF0B937E0F4
:102160002068C16841F4007103E02068C16841F44F
:102170008061C16001222946206800F0E1FB24490A
:102180002068244A884201D0904203D1436C43F432
:1021900000434364206888420FD000E02AE0904268
:1021A0000BD0B0F1804F08D01B49884205D01B49A5
:1021B000884202D01A49884204D1816801F007019F
:1021C000062903D0016841F001010160002084E785
:1021D0002068C16841F40061CBE7206B8162206B0D
:1021E0003946C662206B02632268206B4032FEF7DC
:1021F000E5FE08B1012070E72068C16841F4805114
:10220000B7E700005B290008B9290008F129000898
:10221000002C014000340140000400400008004050
:10222000000C004070B5044600680D0006D0042D77
:102230000AD0082D3DD00C2D0DD140E0C16821F40D
:102240000071C160606A04E0C16821F48061C1600E
:10225000A06AFEF7B9FC00222946206800F070FB56
:102260001E4B41F2111120688A10984202D01C4B7B
:10227000984209D1036A0B4206D1036A134203D183
:10228000436C23F4004343642068036A0B4206D185
:10229000016A114203D1016821F0010101600120AE
:1022A0009DB1042D14D0082D15D084F841000020D4
:1022B00070BDC16821F40061C160E06AC9E7C1680E
:1022C00021F48051C160206BC3E784F83E00EEE743
:1022D00084F83F00EBE784F84000E8E7002C014079
:1022E0000034014010B508490068096888420AD1E5
:1022F000064C206802F018F9054A064B01F02EFF43
:1023000001F0FAFE206010BD9C0100200C000020AE
:102310009A9999999999B93F7047FEE7F0B587B0B6
:1023200000206C46150601D51E2500E00F2525541A
:102330005206401C120E80B20828F3D300200A0671
:1023400001D51E2200E00F2225184906401C090E67
:1023500080B22A720828F2D30020190601D51E2166
:1023600000E00F212218401C117459060B0E80B298
:102370000828F2D3234A00214FF49675002001EB80
:102380004103265C00EBC307401C80B222F81760B3
:102390001828F6D3491C89B2A942EFD34FF4E15073
:1023A00000214FF4E85300BF22F81010401C80B207
:1023B0009842F9D3144C0020B4F9021000F0C2FF87
:1023C000B4F90210282000F0BDFFB4F9021050202B
:1023D00000F0B8FFB4F90210782000F0B3FFB4F9B0
:1023E0000210A02000F0AEFFB4F90210C82000F0E7
:1023F000A9FFB4F90210F02000F0A4FF00F01AFDCC
:1024000007B0F0BD7C030020200000200F4810B56D
:102410000D4901600421416000214FF48022816058
:10242000C0E90312D2004261017641760122827630
:10243000C17601774277FEF7A3FA002803D0BDE802
:102440001040FEF731B810BD006400405400002079
:102450001D4808B5416941F0010141614069002210
:1024600000F00100009011460B20FEF75FFF0B20EB
:10247000FEF74EFF002211460C20FEF757FF0C20FE
:10248000FEF746FF002211460D20FEF74FFF0D20FC
:10249000FEF73EFF002211460F20FEF747FF0F20F8
:1024A000FEF736FF002211461020FEF73FFF1020F6
:1024B000FEF72EFF002211461120FEF737FFBDE880
:1024C00008401120FEF724BF0010024070B586B00E
:1024D00000241F4801940394816941F01001816137
:1024E000816901F010010491816941F0200181614D
:1024F000816901F020010491816941F00401816149
:10250000816901F004010491816941F00801816150
:102510008069012500F00800049046F29F000090B9
:10252000694602950B48FEF793FD0420CDE90004AF
:10253000094E694630460294FEF78AFDF0208DE888
:10254000310069463046FEF783FD06B070BD0000DD
:1025500000100240001001400008014010B596B084
:1025600000240F9410941194129413941C21684623
:102570001494FDF74BFE202107A8FDF747FE2D48D8
:102580002B4901600121C0E901142C21C0E9031489
:1025900044618461FFF7D6F908B1FDF785FF4FF478
:1025A00080500F900FA92348FFF7D8FA08B1FDF724
:1025B0007BFF2048FFF7C2FC08B1FDF775FF1394BD
:1025C00013A91C481494FFF77FF908B1FDF76CFFBD
:1025D000602000901420CDE9010403940494059434
:1025E0000022694613480694FFF745FC08B1FDF741
:1025F0005BFF042269460F480194FFF73CFC08B1D9
:10260000FDF752FF0794089409944FF400500A9480
:10261000CDE90B4007A907480E94FFF72BF908B145
:10262000FDF742FF0348FFF7B9FB16B010BD0000ED
:10263000002C01407C00002010B58EB000240794CF
:10264000089409940A940B941C2168460C94FDF795
:10265000DDFD22484FF0804101600121C0E90114F5
:102660002C21C0E903148461FFF76CF908B1FDF770
:102670001BFF4FF48050079007A91848FFF76EFA28
:1026800008B1FDF711FF1548FFF758FC08B1FDF739
:102690000BFF0B940BA911480C94FFF715F908B127
:1026A000FDF702FF602000900F20CDE90104002219
:1026B00069460A480494FFF7DEFB08B1FDF7F4FE13
:1026C0000422694605480194FFF7D5FB08B1FDF7E0
:1026D000EBFE0248FFF762FB0EB010BDC400002005
:1026E00010B58AB0002407941C2168460894FDF7B1
:1026F0008DFD1648144901600121C0E901142C2107
:10270000C0E903148461FFF719FC08B1FDF7CCFEA2
:10271000079407A90D480894FFF7D6F808B1FDF70C
:10272000C3FE602000901420CDE901040022694618
:1027300006480494FFF79FFB08B1FDF7B5FE034878
:10274000FFF72CFB0AB010BD000400400C01002074
:1027500010B58AB0002407941C2168460894FDF740
:1027600055FD1648144901600121C0E901142D21CD
:10277000C0E903148461FFF7E1FB08B1FDF794FEA3
:10278000079407A90D480894FFF79EF808B1FDF7D4
:102790008BFE6020CDE900040294002269460748C0
:1027A0000494FFF768FB08B1FDF77EFE0348FFF7CE
:1027B000F5FA0AB010BD00000008004054010020E6
:1027C0001CB50024104800940E490194016040F2A9
:1027D0003F11C0E901144FF6FF718461C160FFF73A
:1027E000B1F808B1FDF760FE00946946064801940F
:1027F000FFF76AF808B1FDF757FE0348FFF778F9CD
:102800001CBD0000001000409C010020FEE7FEE718
:10281000704770B514460D46064600F056FB22463A
:102820002946304600F07CFB22462946304600F01F
:1028300035FB224629463046BDE8704000F0DABB41
:102840007047FEF70DBD30B58FB028216846FDF703
:10285000DDFC14210AA8FDF7D9FC01210804CDE90B
:1028600000100024029402250491CDE907504FF492
:10287000E01009906846FEF757FE08B172B6FEE711
:102880000F20CDE90A054FF48060CDE90C4002210C
:102890000AA80E94FEF77CFD002801D072B6FEE770
:1028A0000FB030BD704700000148FFF7C4B9000009
:1028B0009C010020F0B502681C4B1D4D1D4E1E4FA3
:1028C0001E4C4FF0804C984209D0A04207D0604582
:1028D00005D0A84203D0B04201D0B84204D122F0C2
:1028E000700E4A6842EA0E02984209D0A04207D010
:1028F000604505D0A84203D0B04201D0B84203D110
:1029000022F44075CA682A434D6922F080022A43A6
:1029100002608A68C2620A688262984201D0A0425C
:1029200001D10969016301214161F0BD002C014021
:102930000004004000080040000C0040003401404A
:1029400010B501F01F030121046A99408C43046211
:10295000016A9A401143016210BD10B5446A012119
:10296000626A824205D121778069F8B984F83E1005
:102970001CE0A26A824206D1022222778069A8B9AD
:1029800084F83F1012E0E26A824206D104222277E4
:10299000806958B984F8401008E0226B824205D162
:1029A00008222277806908B984F841102046FFF791
:1029B00069FB0020207710BD10B5446A616A81422E
:1029C00001D101200DE0A16A814201D1022008E07D
:1029D000E16A814201D1042003E0216B814201D1EF
:1029E000082020772046FFF74EFB0020207710BDFF
:1029F00010B5446A0121626A824203D1217784F8CA
:102A00003E1019E0A26A824204D10220207784F8A5
:102A10003F1011E0E26A824204D10420207784F85A
:102A2000401009E0226B824204D10820207784F80C
:102A3000411001E084F83D102046FFF7FAF800202D
:102A4000207710BD10B5846842EA032224F47F4445
:102A50000A432243826010BD826822F070020A435A
:102A600042F0070181607047F0B5026A22F001026E
:102A70000262036A42688469124E24F073050C688E
:102A80002C4323F002058B682B430D4DA84201D047
:102A9000B04205D123F00807CB683B4323F0040381
:102AA000A84201D0B04205D14D6922F440721543CD
:102AB0008A692A4342608461496841630362F0BDC8
:102AC000002C014000340140F0B5026A22F01002EF
:102AD0000262026A436884690D6824F4E64444EAA9
:102AE00005248D6822F0200242EA05120F4D104E97
:102AF000A84201D0B04206D1CF6822F0800242EA5B
:102B0000071222F04002A84201D0B04207D14D691D
:102B100023F4406343EA85038D6943EA85034360F8
:102B20008461496881630262F0BD0000002C0140AD
:102B300000340140F0B5026A22F480720262026A37
:102B40004368C46922F4007224F073050C68124EC5
:102B50002C438D6842EA05220E4DA84201D0B042B6
:102B600006D1CF6822F4006242EA072222F4806292
:102B7000A84201D0B04207D14D6923F4405343EA43
:102B800005138D6943EA05134360C4614968C16355
:102B90000262F0BD002C01400034014030B5026AF1
:102BA00022F480520262046A4268C3690D6823F409
:102BB000E64343EA05238D6824F4005444EA0534CF
:102BC000084DA84202D0084DA84204D14D6922F414
:102BD000804242EA85124260C3614968016404622E
:102BE00030BD0000002C01400034014010B5036AE4
:102BF000046A24F001040462846924F0F00444EAC5
:102C0000021423F00A020A438461026210BD10B567
:102C1000036A23F0100303628369046A23F4704398
:102C200043EA023224F0A00343EA01118261016207
:102C300010BD00000148FDF7A5BD000054000020B4
:102C4000FEE7090441EA0020104370472DE9F041F6
:102C500016468846B0F5967F16D20C4F002400EB3E
:102C600040051A4631464046FFF7EBFFA040000200
:102C700001D51E2000E00F2004EBC501641CE4B266
:102C800027F81100182CECD3BDE8F0817C0300205C
:102C90002DE9F04116468846B0F5897F16D80C4FCD
:102CA000002400EB40051A4631464046FFF7C9FFB5
:102CB000A040000201D51E2000E00F2004EBC5015A
:102CC000641CE4B227F81100182CECD3BDE8F081A5
:102CD000BC6200202DE9F041164688464D2816D2E8
:102CE0000C4F002400EB40051A4631464046FFF7E2
:102CF000A8FFA040000201D51E2000E00F2004EB39
:102D0000C501641CE4B227F81100182CECD3BDE80F
:102D1000F08100000C9800202DE9F041164688460D
:102D20005C2816D20C4F002400EB40051A463146B1
:102D30004046FFF786FFA040000201D51E2000E0BC
:102D40000F2004EBC501641CE4B227F81100182C15
:102D5000ECD3BDE8F0810000BC4F00202DE9F0412C
:102D600016468846582816D20C4F002400EB400522
:102D70001A4631464046FFF764FFA040000201D5E5
:102D80001E2000E00F2004EBC501641CE4B227F80C
:102D90001100182CECD3BDE8F08100007C3D002030
:102DA00000210B4A0F2341F6C81000BF22F8113052
:102DB000491C89B28142F9D3002341F6A82100BF02
:102DC00022F81030401C80B28842F9D300F002B8DB
:102DD000BC62002041F6A823024A00210248FFF706
:102DE00053B90000BC620020C400002040F6180364
:102DF000024A04210248FFF747B900000C9800205E
:102E00007C0000204FF41863024A04210248FFF7B7
:102E10003BB90000BC4F0020C40000204FF41263F7
:102E2000024A00210248FFF72FB900007C3D002034
:102E30000C0100204FF4E853024A00210248FFF73A
:102E400023B900007C0300207C0000202DE9F04124
:102E500015460E46074600242B4632463946204684
:102E6000FFF738FF641CA4B24D2CF5D3BDE8F04148
:102E7000FFF7BCBF2DE9F04115460E46074600247A
:102E80002B46324639462046FFF746FF641CA4B263
:102E90005C2CF5D3BDE8F041FFF7B4BF2DE9F0415C
:102EA00015460E46074600242B4632463946204634
:102EB000FFF732FF0220FEF7B9F8641CA4B25C2CC5
:102EC000F2D3BDE8F041FFF79DBF2DE9F041154673
:102ED0000E46074600242B46324639462046FFF769
:102EE000F9FE0320FEF7A2F8641CA4B24D2CF2D325
:102EF000BDE8F041FFF77ABF2DE9F04115460E46D7
:102F0000074600242B46324639462046FFF726FF67
:102F1000641CA4B2582CF5D3BDE8F041FFF77EBF86
:102F20002DE9F04115460E46074600242B46324651
:102F300039462046FFF712FF0220FEF777F8641C9F
:102F4000A4B2582CF2D3BDE8F041FFF767BF0000F0
:102F5000F0B587B000246B460D0601D51E2500E0B4
:102F60000F251D554906641C090EA4B2082CF3D385
:102F70000021040601D51E2400E00F245D18400640
:102F8000491C000E89B22C720829F2D300201106C8
:102F900001D51E2100E00F211C18401C2174510690
:102FA0000A0E80B20828F2D3114A00214FF4967518
:102FB000002001EB41041E5C00EBC407401C80B202
:102FC00022F817601828F6D3491C89B2A942EFD31A
:102FD0004FF4E15000214FF4E85300BF22F81010E5
:102FE000401C80B29842F9D3FFF724FF07B0F0BD30
:102FF0007C0300202DE9F04116460F468046002450
:103000004FF4967533463A4641462046FFF71EFE7A
:103010000220FEF70BF8641CA4B2AC42F2D3BDE868
:10302000F041FFF707BF70B50646144613460D463C
:103030000A4600203146FFF72BFE0C2023462A4685
:103040003146FFF725FE192023462A463146FFF771
:103050001FFE262023462A463146FFF719FE32205E
:1030600023462A463146FFF713FE3D2023462A46D3
:103070003146FFF70DFE482023462A463146FFF72A
:1030800007FE542023462A463146FFF701FE5F2003
:1030900023462A463146FFF7FBFD692023462A4690
:1030A0003146FFF7F5FD732023462A463146FFF7E8
:1030B000EFFD7D2023462A463146FFF7E9FD8720B4
:1030C00023462A463146FFF7E3FD902023462A4651
:1030D0003146FFF7DDFD982023462A463146FFF7AB
:1030E000D7FDA12023462A463146FFF7D1FDAA206D
:1030F00023462A463146FFF7CBFDB22023462A4617
:103100003146FFF7C5FDB92023462A463146FFF771
:10311000BFFDE62023462A463146FFF7B9FDE120F0
:1031200023462A463146FFF7B3FDF02023462A46C0
:103130003146FFF7ADFDC02023462A463146FFF752
:10314000A7FDEB2023462A463146FFF7A1FDBDE847
:103150007040FFF73FBE2DE9F04115460E46074689
:1031600000242B46324639462046FFF791FD0320C6
:10317000FDF75CFF641CA4B2E02CF2D3BDE8F04183
:10318000FFF728BE2DE9F04116460F468046F5248C
:103190004FF4827533463A4641462046FFF778FDA4
:1031A000641CA4B2AC42F5D3BDE8F041FFF712BEF7
:1031B0002DE9F04115460E460746AA242B46324615
:1031C00039462046FFF764FD641CA4B2C82CF5D331
:1031D000BDE8F041FFF7FEBD2DE9F04115460E4672
:1031E000074687242B46324639462046FFF750FDD6
:1031F000641CA4B2AA2CF5D3BDE8F041FFF7EABDE8
:103200002DE9F04116460F4680464FF482744FF484
:10321000867533463A4641462046FFF739FD641C21
:10322000A4B2AC42F5D3BDE8F041FFF7D3BD2DE920
:10323000F04115460E46074600242B4632463946D5
:103240002046FFF725FD641CA4B2322CF5D3BDE85F
:10325000F041FFF7BFBD2DE9F04115460E46074688
:10326000E1242B46324639462046FFF711FD641C07
:10327000A4B2F52CF5D3BDE8F041FFF7ABBD2DE9C5
:10328000F04115460E460746C8242B4632463946BD
:103290002046FFF7FDFC641CA4B2E12CF5D3BDE889
:1032A000F041FFF797BD2DE9F0414FF486741646C3
:1032B0000F468046251D33463A4641462046FFF7D5
:1032C000E7FC641CA4B2AC42F5D3BDE8F041FFF7C3
:1032D00081BD2DE9F04115460E4607465F242B4679
:1032E000324639462046FFF7D3FC641CA4B2872C33
:1032F000F5D3BDE8F041FFF76DBD2DE9F04115466E
:103300000E46074632242B46324639462046FFF702
:10331000BFFC641CA4B25F2CF5D3BDE8F041FFF7FD
:1033200059BD0907090E002804DB00F1E02080F8F0
:103330000014704700F00F0000F1E02080F8141D29
:1033400070470000F0B5421802EB4203DC00544B1A
:103350000F26D51C9C80534C05EB450705E0002D3E
:1033600001DB24F815606D1C9D80B3F90450B5EBAA
:10337000C70FF4DB551D05EB4505ED004718083771
:103380009D8007EB470C05E0002D01DB24F815605C
:103390006D1C9D80B3F90450B5EBCC0FF4DB07EB4B
:1033A0004705ED009D8002F10A0505EB450505E0A6
:1033B000002F01DB24F817607F1C9F80B3F9047095
:1033C000B7EBC50FF4DB02F10E0505EB4505ED008B
:1033D000084410309D8000EB400105E0002D01DB2A
:1033E00024F815606D1C9D80B3F90450B5EBC10F36
:1033F000F4DB00EB4000C000988002F1110000EB0C
:10340000400105E0002801DB24F81060401C988092
:10341000B3F90400B0EBC10FF4DB02F1170000EBCD
:103420004000C000988002F1180000EB400105E068
:10343000002801DB24F81060401C9880B3F90400D8
:10344000B0EBC10FF4DB02F11B0000EB4000C00049
:10345000988002F11D0000EB400105E0002801DB2F
:1034600024F81060401C9880B3F90400B0EBC10F41
:10347000F4DB02F1220000EB4000C000263298800D
:1034800002EB420105E0002801DB24F81060401C3B
:103490009880B3F90400B0EBC10FF4DBF0BD00007D
:1034A000200000207C03002007490A7802704A7837
:1034B00042708A788270CA78C2700A7902714A7939
:1034C000427189798171704730000020FDF7D0FE8C
:1034D000FFF7B9F9FEF7FAFFFEF7BAFFFEF796FF1E
:1034E000FFF7AAF8FFF7FCF8FFF738F8FFF730F915
:1034F000FFF766F9FCF774FFFE48FCF7EAFE0022CE
:1035000011461046FFF7B6FC002211461046FFF7A1
:103510009DFC002211461046FFF71AFD00221146BD
:103520001046FFF7E9FCFFF73BFC0021FF220846AD
:10353000FFF779FD0021FF220846FFF7DEFE00219C
:10354000FF220846FFF787FE0021FF220846FFF70B
:1035500057FE41F28830FDF769FDE84CE64EDFF892
:10356000A0B34FF400594FF4804A04F10A08002236
:10357000FF23114642F21070FEF7D0FEE14F49469C
:103580003846FDF761FE207051463846FDF75CFE77
:10359000607001213846FDF757FEA07002213846C1
:1035A000FDF752FEE07004213846FDF74DFE207114
:1035B00008213846FDF748FE607110213046FDF7BE
:1035C00043FEA07120213046FDF73EFEE071402110
:1035D0003046FDF739FE207280213046FDF734FE7B
:1035E000C44D607295F82200002857D195F8230049
:1035F000002877D1002196220846FFF714FD00210C
:1036000096220846FFF779FE002196220846FFF72A
:1036100036FE002196220846FFF7F2FDBBF80010A7
:103620005846322901D8491C018088B21E280FD87B
:103630000022962311461046FEF770FE00219622C6
:103640000846FFF759FC002196220846FFF712FCB6
:10365000BBF8000032280AD30421AB48FEF7E2FD94
:103660000021AA48FEF7DEFD3321ABF800102078D8
:10367000A8B1607898B1A07888B1E07878B1207965
:1036800068B1607958B1A07948B1E07938B1207A51
:1036900028B1607A18B10020ABF8080085E001205D
:1036A00085F82200BBF80800401CABF80800FFF7C3
:1036B00077FBBBF80800002877D0207898B16078B5
:1036C000A8B1A078B8B1E078C8B12079D8B1607954
:1036D000E8B1A079F8B1E07908B3207A18B3607A3C
:1036E00028B327E065E0012088F8000026E00120EB
:1036F00088F801001EE0012088F802001AE001208D
:1037000088F8030016E0012088F8040012E0012088
:1037100088F805000EE0012088F806000AE0012084
:1037200088F8070006E0012088F8080002E0012080
:1037300088F8090098F80010404639B198F801104F
:10374000404659B1002188F801102EE0417829B196
:10375000817859B1002188F8021026E0817829B1DA
:10376000C17859B1002188F803101EE0C17829B151
:10377000017959B1002188F8041016E0017929B1C6
:10378000417959B1002188F805100EE0417929B13D
:10379000817951B1002188F8061006E0817921B1C4
:1037A000C17911B1002188F8071095F8220001288D
:1037B00004D095F82300012808D07BE0012085F88B
:1037C00023000020ABF80000ABF80200FFF7E8FA96
:1037D000002196220846FFF7BBFB002196220846EF
:1037E000FFF734FB98F80000012808D10021962249
:1037F0000846FFF71CFD40F6C410FDF717FC98F8CB
:103800000100012808D1002196220846FFF775FD26
:1038100040F6C410FDF70AFC98F80200012808D110
:10382000002196220846FFF754FD40F6C410FDF72C
:10383000FDFB98F80300012808D1002196220846D4
:10384000FFF7CAFC40F6C410FDF7F0FB98F804003F
:10385000012808D1002196220846FFF7A9FC40F66E
:10386000C410FDF7E3FB98F80500012808D10021FA
:1038700096220846FFF703FD40F6C410FDF7D6FB7D
:1038800098F80600012808D1002196220846FFF783
:10389000E2FC40F6C410FDF7C9FB98F807000128C8
:1038A00008D1002196220846FFF76CFC40F6C410B0
:1038B000FDF7BCFBFCF740FD49463846FDF7C4FC6C
:1038C000207051463846FDF7BFFC60700121384634
:1038D000FDF7BAFCA07002213846FDF7B5FCE07098
:1038E00004213846FDF7B0FC207108213846FDF769
:1038F000ABFC0DE089A8002000080140400000203A
:103900000000002000100140C40000200C01002035
:10391000607110213046FDF797FCA07120213046E0
:10392000FDF792FCE07140213046FDF78DFC2072DE
:1039300080213046FDF788FC6072FE4890F8221026
:1039400000297DD190F8200085F8200095F82110FD
:10395000884238D00027ABF80470ABF80670ABF89B
:1039600008703A4639463846FFF784FA0022114675
:103970001046FFF76BFA002211461046FFF7E8FAEF
:10398000002211461046FFF7B7FA85F8237085F834
:10399000227085F82770FFF703FA88F8007088F81E
:1039A000017088F8027088F8037088F8047088F84D
:1039B000057088F8067088F8077088F8087088F82D
:1039C0000970ABF80070DB4F95F8200085F82100F6
:1039D000F87FA0BB002211461046FFF74BFA0022E9
:1039E00011461046FFF7B4FA002211461046FFF7C1
:1039F00083FA002211461046FFF728FAFFF7D0F9A4
:103A0000002085F8230085F8220085F8270088F833
:103A1000000088F8010088F8020088F8030088F8A0
:103A2000040088F8050088F8060088F8070088F880
:103A3000080088F80900ABF80000ABF8080000E0C7
:103A400024E395F8200001287ED195F82200002873
:103A50005AD195F82300002877D1F87F012875D135
:103A6000002196220846FFF7DEFA0021962208463A
:103A7000FFF743FC002196220846FFF700FC0021D7
:103A800096220846FFF7BCFBBBF8001058463229C7
:103A900018D8491C89B201801E290FD8002296230C
:103AA00011461046FEF73AFC002196220846FFF721
:103AB00023FA002196220846FFF7DCF9BBF8000044
:103AC00032280AD304219C48FEF7ACFB00219B4816
:103AD000FEF7A8FB3320ABF800002078A8B160788F
:103AE00098B1A07888B1E07878B1207968B1607930
:103AF00058B1A07948B1E07938B1207A28B1607A1C
:103B000018B10020ABF8080098E0012085F82200E9
:103B1000BBF80810491CABF80810FFF741F9BBF8D7
:103B2000080080B32078B0B16078C0B1A078D0B17F
:103B3000E078E0B12079F0B1607900B3A07918B3F2
:103B4000E07928B3207A02E0D0E080E092E118B377
:103B5000607A28B327E0012088F8000027E00120E0
:103B600088F801001FE0012088F802001BE0012016
:103B700088F8030017E0012088F8040013E0012012
:103B800088F805000FE059E0012088F806000AE0F7
:103B9000012088F8070006E0012088F8080002E00C
:103BA000012188F8091098F80010404639B198F8BA
:103BB0000110404659B1002188F801103EE04178DB
:103BC00029B1817859B1002188F8021036E0817856
:103BD00029B1C17859B1002188F803102EE0C178CD
:103BE00029B1017959B1002188F8041026E0017942
:103BF00029B1417959B1002188F805101EE04179B9
:103C000029B1817959B1002188F8061016E081792F
:103C100029B1C17959B1002188F807100EE0C179A6
:103C200029B1017A51B1002188F8081006E0017A23
:103C300021B1417A11B1002188F8091095F82200CC
:103C4000012804D1387F10B9F87F012804D095F8F5
:103C50002300012809D08BE0012085F823000020F3
:103C6000ABF80000ABF8020001E0387FF0BB0021A8
:103C700096220846FFF76CF9002196220846FFF7C6
:103C8000E5F898F80000012804D1002196220846A2
:103C9000FFF7CDFA98F80100012804D100219622FF
:103CA0000846FFF72AFB98F80200012804D10021FA
:103CB00096220846FFF70DFB98F80300012804D16F
:103CC000002196220846FFF787FA98F80400012899
:103CD00004D1002196220846FFF76AFA98F80500F9
:103CE000012806D196220021084600E040E0FFF7B7
:103CF000C6FA98F80600012804D100219622084649
:103D0000FFF7A9FA98F80700012804D100219622AC
:103D10000846FFF737FA98F80800012804D1002177
:103D200096220846FFF76CFA98F8090001281FD17F
:103D3000962205E066A80020C40000200C010020A7
:103D400000210846FFF7AFFA002196220846FFF748
:103D500019FA002196220846FFF791FA00219622CF
:103D60000846FFF739FA002196220846FFF7C5FA00
:103D700095F8200000287DD1DC4890F82200E8BBAF
:103D8000DA4890F82300D0BBF87F0128F3D1002255
:103D900011469620FFF747F9002211469620FFF7BB
:103DA000ACFA002211469620FFF769FA002211466C
:103DB0009620FFF725FABBF800005D46462801D89B
:103DC000401C288080B228280FD800231A4696214C
:103DD0001846FEF7A3FA002211469620FFF78CF84A
:103DE000002211469620FFF745F8288846280CD374
:103DF0000421BF48FEF716FA002101E05AE0BAE0BC
:103E0000BC48FEF70FFA472028802078A0B16078E0
:103E100090B1A07880B1E07870B1207960B160791C
:103E200050B1A07940B1E07930B1207A20B1607A08
:103E300010B10020288194E0AC49012081F82200D3
:103E40002889401C2881FEF7ABFF288990B3207891
:103E5000A0B16078B0B1A078C0B1E078D0B12079DD
:103E6000E0B16079F0B1A07900B3E07918B3207ABD
:103E700028B300E0CEE0607A28B327E0012088F87C
:103E8000000027E0012088F801001FE0012088F8E9
:103E900002001BE0012088F8030017E0012088F8E9
:103EA000040013E0012088F805000FE0012088F8E5
:103EB00006000BE055E0012088F8070006E001202D
:103EC00088F8080002E0012088F8090098F800103E
:103ED000404639B198F80110404659B1002188F8A0
:103EE00001103EE0417829B1817859B1002188F86C
:103EF000021036E0817829B1C17859B1002188F8E3
:103F000003102EE0C17829B1017959B1002188F858
:103F1000041026E0017929B1417959B1002188F8CE
:103F200005101EE0417929B1817959B1002188F845
:103F3000061016E0817929B1C17959B1002188F8BC
:103F400007100EE0C17929B1017A51B1002188F83A
:103F5000081006E0017A21B1417A11B1002188F8F8
:103F60000910624890F82210012904D1397F11B953
:103F7000F97F012905D05D4890F82300012809D078
:103F800081E0012180F823100020ABF80000ABF89D
:103F9000020001E0387FE8BB002211469620FEF7C0
:103FA000D7FF00221146FF20FEF764FF00221146D2
:103FB0009620FEF74BFF98F800004546012804D1F3
:103FC000002211469620FFF732F96878012804D1C3
:103FD000002211469620FFF790F9A878012804D115
:103FE000002211469620FFF774F9E878012804D1E1
:103FF000002211469620FFF7EFF82879012804D116
:10400000002211469620FFF7D3F86879012806D1DF
:10401000002200E037E011469620FFF730F9A8793A
:10402000012804D1002211469620FFF714F9E879FF
:10403000012804D1002211469620FFF7A3F8287A20
:10404000012804D1002211469620FFF7D9F8687A9A
:10405000012818D1002211469620FFF724F90022EA
:1040600011469620FFF78EF8002211469620FFF7A2
:1040700006F9002211469620FFF7AEF800221146FD
:104080009620FFF73AF997F8220048B3FEF788FE2A
:10409000662199220846FEF7BCFB00226621FF201C
:1040A000FFF759F8002211461046FEF7B2FB002236
:1040B00011461046FFF74FF837229B211520FFF7D6
:1040C0004AF8002233211046FEF7A3FB00221146D6
:1040D0001046FEF79EFB002211461046FFF73BF804
:1040E0000120FCF7A3FFFFF742BA000089A80020D7
:1040F000C40000200C01002021F00042A2F1605217
:10410000B2F5801F01F0004328BFD2F17F6C0BD9BC
:104110005FEA001C43EAC20242EB507018BF7047CE
:1041200028BF20F001007047B2F5801FBCBF1846C1
:1041300070474FEA410C1CF5001F02D2084600F000
:1041400064BA70B500F0B2F800000089FFF7F6BF5E
:104150004FF00040A0F580007047000010B591EAD4
:10416000030F48BF83F0004300F1FC80841A71EB19
:10417000030C05D2121943EB0C03001B61EB0C017D
:10418000DFF824E14FEA1154A4EB135C1EEA430F5D
:1041900018BF9EEA445F73D023EA0E03DCF1200EC1
:1041A00021EA045143F4801332D322FA0CFE10EBBF
:1041B0000E0023FA0CFE41EB0E01CCF1200E03FAA7
:1041C0000EFE10EB0E0051F10001B1F5801FCCF195
:1041D000200E32D201EB045112FA0EF2BDE810406B
:1041E00058BF7047401C38BF5FEA420218BF704793
:1041F000002814BF20F0010041F100014FEA410303
:1042000013F5001F38BF7047A1F1C04100F09CB802
:10421000012A43EB0302ACF1200CDCF11F0E32BF8C
:104220004FF0000E23FA0CF310EB030041EB0451A6
:10423000B4EB115FD0D0A1EB045101F58011490816
:104240005FEA300001EB04510ED350F1000038BF9B
:1042500012FA0EFE08D1BDE81040C9E7401C38BF75
:104260005FEA4202CAD1C3E7BDE810404FEA41030A
:1042700013F5001F38BF7047A1F1C04100F064B8CA
:104280009EEA445F08D011EA5E0FBDE8104004BF0B
:1042900001F0004100207047BDE8104070B500F00B
:1042A00005F800BF64FBBE3E0000E0FF0EF1020E09
:1042B0002EF0030E5EF8046B364205D4012A43EB60
:1042C000030515F5001F12D8012841EB010C1CF560
:1042D000001F0CD80ED14FEAD17C15F5001F0CEB56
:1042E0004C0C0CF1020C08BF4CEBD37C04E04FF0FB
:1042F000080C01E04FEAD37C0CEB4C0526FA05F6DE
:1043000006F00706B6F1040C06D20EEB860CBDE8EB
:1043100070404CF0010C6047DFE80CF0090B020222
:104320004FF000414FF00000A1F5002170BD19468B
:104330001046012851EB010418BFD4F5001484BFC6
:10434000002001F0004170BD0808A0F500114FEAFF
:104350003101704710B591EA030F48BF83F0004365
:104360003FF504AF841A71EB030C07D212198CF0DD
:10437000004C43EB0C03001B61EB0C01DFF8A4E1E4
:104380004FEA1154A4EB135C1EEA430F18BF9EEAD8
:10439000445F00F0B08023EA6E03524221EA0451E8
:1043A000C3EB6E0338BF5B1EDCF1200E25D322FA6F
:1043B0000CFE10EB0E0043FA0CFE41EB0E01CCF1AB
:1043C000200E03FA0EFE10EB0E0051F10001CCF1AD
:1043D000200E29D412FA0EF201EB0451BDE8104070
:1043E00058BF7047401C1CBFB2F1004F70470028F7
:1043F0000CBF491C20F00100704712EB020E43EB8A
:10440000030218BF4FF0010E4EEA4202ACF1200C3D
:10441000DCF11E0E54D943FA0CFE10EB0E0051F1E4
:10442000FF31CCF11E0ED5D50EF1010E12FA0EFEA3
:10443000404141EB010101EB445C5FEA5C5C10D957
:1044400010EBDE7001EB045138BFBEF1004FBDE848
:10445000104018BF704700280CBF491C20F0010015
:10446000704730D24FEAD42C11F5001124F40064C7
:104470001BD0B1FA81F20B3AA41AA41ED2F1200388
:10448000914030FA03F31943904001EBCC71002CBA
:1044900001EB0451BDE81040A8BF704701F1C041D5
:1044A0004FF0000001F000417047B0FA80F310FABD
:1044B00003F100D110BDE41A173C4805C90AE4E72E
:1044C00001EB045110BD491001EB0451BDE810404F
:1044D0004FEA300002E04FF0000170474A0008BF89
:1044E0000042F8D0B2F5001F28BF704701F000412C
:1044F0004FF0000070479EEA445F07D011EA5E0F5C
:10450000BDE8104004BF002100207047BDE8104006
:1045100070B5FFF7CBFE00BF40DFF63E83F00041F1
:10452000104670470000E0FF43004FEAD30C4FEA0B
:104530003C0C43401FBF40070CF1605113F0FE4F8D
:1045400070471CF0006F03D100200CF00041704751
:104550000CF0004343EA507010B540EACC0000F084
:104560000EF800BF000000924FEA0001FFF7ECBE1A
:104570004FF000414FF00000A1F5002170470EF10F
:10458000020E2EF0030E5EF8044B244204D44FEAD0
:104590004102B2F17F4F11D84FEA4003B3F17F4F90
:1045A0000CD80ED14FEAD07CB2F17F4F0CEB4C0C03
:1045B0000CF1020C08BF4CEBD17C04E04FF0080C6E
:1045C00001E04FEAD17C0CEB4C0324FA03F404F035
:1045D0000704B4F1040C06D20EEB840CBDE81040C5
:1045E0004CF0010C6047DFE80CF0070802024FF0C6
:1045F0000040A0F5800010BD0846420018BFD2F16F
:10460000807288BF00F0004010BDFF2141EAD05009
:10461000C005704700000000000000000102030414
:10462000060708094446000800000020400000007A
:104630006C0100088446000840000020D8AE00004D
:1046400088010008000000000000000000000000D9
:104650000000000001000000100000000000000049
:104660000024F40000000000000000000000000032
:10467000000000000000000000000000000000003A
:044680000000000036
:0400000508000131BD
:00000001FF
