:020000040800F2
:1000000058190020610200085B2C0008952900089F
:10001000592C0008F1060008FD330008000000001C
:10002000000000000000000000000000D12C0008CB
:100030003D0B000800000000672C0008D52C0008CC
:100040007B0200087B0200087B0200087B0200089C
:100050007B0200087B0200087B0200087B0200088C
:100060007B0200087B0200087B0200087B0200087C
:100070007B0200087B0200087B0200087B0200086C
:100080001D080008290800087B0200087B02000800
:100090001D0700087B0200087B0200087B020008A5
:1000A0007B0200087B0200087B0200087B0200083C
:1000B0007B0200087B0200087B0200087B0200082C
:1000C0007B0200087B0200087B0200087B0200081C
:1000D0007B0200087B020008A53300087B020008B1
:1000E0007B0200087B0200087B0200087B020008FC
:1000F0007B0200087B0200087B0200087B020008EC
:100100007B0200087B0200087B0200087B020008DB
:100110007B0200087B0200087B0200087B020008CB
:100120007B020008350800087B0200087B020008FB
:100130007B0200087B0200087B0200087B020008AB
:10014000550700087B0200087B0200087B020008BC
:100150007B0200087B0200087B0200087B0200088B
:100160007B0200087B0200087B0200087B0200087B
:100170007B0200087B0200087B02000800000000F0
:100180007B0200087B02000800F002F800F03EF855
:100190000AA090E8000C82448344AAF10107DA45E2
:1001A00001D100F033F8AFF2090EBAE80F0013F0F6
:1001B000010F18BFFB1A43F001031847743A0000FF
:1001C000943A0000103A24BF78C878C1FAD8520790
:1001D00024BF30C830C144BF04680C6070470000C1
:1001E0000023002400250026103A28BF78C1FBD840
:1001F000520728BF30C148BF0B6070471FB503F0DE
:1002000001FD00F0DAF81FBD10B510BD00F008F9CF
:100210001146FFF7F3FF03F0DDF900F026F903B410
:10022000FFF7F2FF03BC00F02DF900000B49D1F8F5
:1002300000C04A685CF8043B1068184442F8040B9C
:100240008C4528BFA1F1DC0C8A4228BFA1F1DC0259
:10025000C1F800C04A6020F000407047F012002052
:100260000948804709480047FEE7FEE7FEE7FEE74A
:10027000FEE7FEE7FEE7FEE7FEE7FEE70448054986
:10028000054A064B70470000B12D0008890100089F
:100290005813002058190020581500205815002028
:1002A00053EA020C00F069802DE9F04B4FF0000694
:1002B000002B1FBFB3FA83F503FA05F424FA05F601
:1002C0005E4012BF1643B2FA82F502FA05F4C5F198
:1002D00020051EBF22FA05FC44EA0C04203556EA2C
:1002E000044C4FEA144418BF641C4FF000084FF050
:1002F0000009904271EB030C39D3002919BFB1FA00
:1003000081F701FA07F6B0FA80F700FA07F6C7F1AD
:1003100020071EBF20FA07FC46EA0C062037B6FB72
:10032000F4FCA7EB0507103F07F01F0BCBF12006ED
:100330000CFA0BFB2CFA06F644BFB3460026202F1E
:10034000A4BF5E464FF0000B5BEA060C08BF4FF0FF
:10035000010B19EB0B09ABFB027C48EB0608C01B39
:1003600006FB02CC0BFB03CC71EB0C01C1E70B4687
:10037000024641464846BDE8F08B13B54FF00000F9
:100380004FF00001AFF30080BDE81C407047000053
:100390000B4910B5A1F17C020A4CC2E93712372192
:1003A00006E000EB104342F82130074B00FB03400E
:1003B0000B1EA1F10101F4DC10BD0120E8E70000F3
:1003C00090120020E119D666CD0D01004FF0000219
:1003D00000B5134694469646203922BFA0E80C503B
:1003E000A0E80C50B1F12001BFF4F7AF090728BF16
:1003F000A0E80C5048BF0CC05DF804EB890028BF92
:1004000040F8042B08BF704748BF20F8022B11F0BA
:10041000804F18BF00F8012B704770477047704736
:10042000754600F02BF8AE4605006946534620F0AD
:100430000700854618B020B5FFF720FFBDE8204033
:100440004FF000064FF000074FF000084FF0000B90
:1004500021F00701AC46ACE8C009ACE8C009ACE843
:10046000C009ACE8C0098D46704710B50446AFF32B
:1004700000802046BDE81040FFF7D1BE004870471D
:10048000F812002001491820ABBEFEE7260002004A
:100490007047000010B5154B19210024A0F201107F
:1004A0005971052808D2DFE800F003080E141A007D
:1004B0000F4803F057F81C7010BD0D48083003F0CA
:1004C00051F85C7010BD0A48103003F04BF89C7076
:1004D00010BD0748183003F045F8DC7010BD044823
:1004E000203003F03FF81C7110BD0000A200002076
:1004F000C811002000214171017081704170C170EC
:10050000017181714173017281724172C172017313
:1005100081734175017481744174C1740175817571
:100520004177017681764176C1760177817780F8CF
:10053000251080F8201080F8221080F8211080F813
:10054000231080F8241080F82610704770B53D4CB9
:100550003D4E2088401C80B20525B0FBF5F120807F
:1005600005FB110060B93068C4F802007068C4F877
:10057000060008230122A11C40F2013000F08AF895
:100580002088B0FBF5F105FB110001280FD1D6F84A
:100590000700C4F80200D6F80B002A49C4F8060088
:1005A00008230122891C40F2023000F073F82088F1
:1005B000B0FBF5F105FB110002280FD1D6F80E00B3
:1005C000C4F80200D6F812001E49C4F80600082339
:1005D0000122891C40F2033000F05CF82088B0FB57
:1005E000F5F105FB110003280FD1D6F81500C4F86A
:1005F0000200D6F819001349C4F8060008230122A6
:10060000891C4FF4417000F045F82088B0FBF5F1EB
:1006100005FB110004280DD1F069C4F80200306A0E
:100620000849C4F8060008230122891C40F205305D
:1006300000F030F8208847F23051884201D3002082
:10064000208070BD98000020F01100200021417032
:100650008170C17001700171012242710172417299
:100660008172C171C1720273C1730174417481736B
:100670008174C2748175C175017641754176827647
:1006800041778177C177017780F8201080F82120A9
:100690007047000030B589B0002402940090CDE985
:1006A000034308788DF8180048788DF81900887889
:1006B0008DF81A00C8788DF81B0008798DF81C0099
:1006C00048798DF81D0088798DF81E00C8798DF85D
:1006D0001F00012A06D108AB6946044806AA00F0AB
:1006E00042FA054609B0284630BD0000BC00002093
:1006F000FEE7000000B58BB0684600F033F86946AD
:10070000054800F09FFA0221034800F01AFA024857
:1007100000F0B0FD0BB000BDBC000020014800F0AF
:100720008CBB0000BC000020FFF7B4BE00B58BB04E
:10073000684600F017F86946054800F083FA022180
:10074000034800F0FEF9024800F094FD0BB000BD34
:10075000E4000020014800F070BB0000E40000202D
:1007600002F020B90021016041608160C160016137
:1007700001224161C0E90612C0E90821704700006A
:1007800010B5104A016891420AD10F4B0F4A00215F
:1007900000F0DFFA0D480C490068FFF7C5FF10BDF7
:1007A0000B4A9142FBD1084B084A08331C32002106
:1007B00000F0CFFA054804491C3008310068FFF703
:1007C000CFFF10BD00640040A90000209011002060
:1007D0000068004038B50E4C4FF4007525600025C8
:1007E000A560E560082525610A4C050A2570607042
:1007F000080AA070E170100A20716271180AA071D5
:10080000E3716B4622460249034800F0ACF938BD5B
:10081000880300204C000020E4000020014800F084
:10082000B7BD0000F8010020014800F0B1BD000094
:1008300058020020014800F0ABBD00005401002028
:100840002DE9F04F85680024099E802D18D0894D30
:10085000C563894D456490F83450012D15D00125AC
:1008600080F8345090F83550012D10D0002180F8D8
:1008700034100224002180F834102046BDE8F08FA7
:100880004FF4807141650120F8E70220F6E7022568
:1008900080F835500025456505682F6847F48027A6
:1008A0002F6005682B6103685E608368402B0368D6
:1008B0002AD099600168CA60714D704E704FDFF8A0
:1008C000BC81DFF8B891DFF8B8A1DFF8B4B1EA1461
:1008D000DFF8A8E10168183630379302A9F148091A
:1008E0000AF1600A0BF1180BAEF1300E4FF0006CFC
:1008F00041452DD9A94205D0494503D0514501D0E4
:10090000B14205D1202220E09A600268D160D3E78D
:1009100059451AD0714518D0594D7835A94214D08F
:10092000564D3035A94210D0B9420BD0534A183A2F
:10093000914207D0524A9032914203D04F4A4832F6
:10094000914201D11A4600E062464C494C392EE0F2
:10095000DFF82C8108F1A80841452AD9A94205D021
:10096000494503D0514501D0B14201D120221CE0BC
:1009700059451AD0714518D0414D7835A94214D047
:100980003E4D3035A94210D0B9420BD03B4A183AFF
:10099000914207D03A4A9032914203D0374A4832C6
:1009A000914201D11A4600E06246344950390A604A
:1009B0005AE0DFF8CC8008F1480841452AD9A9421D
:1009C00005D0494503D0514501D0B14201D1202283
:1009D0001CE059451AD0714518D0294D7835A942E7
:1009E00014D0264D3035A94210D0B9420BD0234A3D
:1009F000183A914207D0224A9032914203D01F4ABE
:100A00004832914201D11A4600E062461C49103931
:100A1000CA6029E0A94205D0494503D0514501D01B
:100A2000B14201D120221CE059451AD0714518D09D
:100A3000134D7835A94214D0104D3035A94210D04D
:100A4000B9420BD00D4A183A914207D00C4A903265
:100A5000914203D0094A4832914201D11A4600E03E
:100A60006246074910398A6001680A6842F001024B
:100A70000A60FFE6353500084D350008586402402D
:100A80001060024001681823CAB2103AB2FBF3F2B8
:100A9000054B6FF30901032A9B5CC36500D9091D4F
:100AA00081650846704700000E3C000810B50146FD
:100AB00000208B698A6A4FF0C07453B1B3F5005FB0
:100AC00015D072B1012A0CD0022A0AD0032A09D10A
:100AD00004E01AB1012A06D0022A03D1C96AC90169
:100AE00000D5012010BDC96AA142FAD010BD002A6C
:100AF000F7D0012AF2D0022AF3D0032AF3D010BD96
:100B000030B50468256825F4802525600468636095
:100B10008368402B036803D099600068C26030BDD1
:100B20009A600068C16030BD01680A68D20604D5C9
:100B3000C968C90601D503F03DB87047704772B661
:100B4000FEE790F82020012A07D0022A05D0416A4A
:100B500041F48021416201207047006842690A43E4
:100B6000426100207047F0B590F820500468A468F6
:100B7000012D05D0022D03D0416A41F480215DE0B2
:100B800014F0406F01D1E50055D5C4F30164022C87
:100B900003D9416A41F4000150E00125A5401D60E0
:100BA0008D684FF4C0739DB1CE6835434E6845EAF9
:100BB000C605066803EB0417F5514FF4C2750768C4
:100BC00005EB04150E697E51097D012905D009E068
:100BD0000E88CD6845EA4655EBE701684E5946F464
:100BE00080764E511179D579567941EA056195792A
:100BF0002D0445EA062529434FF4C676056806EB21
:100C00000416A9511178D57841EA05619578527892
:100C10002D0445EA022211434FF4C475026805EB26
:100C200004155151006803EB0411425842F00102CF
:100C300042500020F0BD416A41F4001141620120A0
:100C4000F0BD000010B590F82020012A07D0022A3C
:100C500005D0416A41F480214162012010BD3B482A
:100C6000D0F8002242F00102C0F80022D0F80022A1
:100C700022F47C52C0F80022D0F800224B6A42EAEB
:100C80000322C0F800220A7D02F01F0301229A40CD
:100C9000D0F81C329343C0F81C32CB69B3B9D0F8FA
:100CA0000C329343C0F80C328C894B6864F31F43B9
:100CB0004C6900EBC404C4F840320C890B6864F33F
:100CC0001F434C6900EBC404C4F84432CB69012BC8
:100CD00016D1D0F80C321343C0F80C320C884B6894
:100CE00064F31F434C6900EBC404C4F840320C8920
:100CF000CB6864F31F434C6900EBC404C4F844326E
:100D00008B69002BD0F804320ED01343C0F80432A4
:100D10000B69002BD0F8143208D01343C0F81432FA
:100D2000096A012904D008E09343EFE79343F5E70C
:100D3000D0F81C121143C0F81C12D0F8001221F098
:100D40000101C0F80012002010BD00000064004046
:100D5000704730B590F82040012C05D0022C03D00C
:100D6000416A41F480215DE00468002955D024697E
:100D7000A40754D04FF4D874056804EB01142D591E
:100D800015F00405956005682D594ED0ED085560A5
:100D900005682C5904F00204D4604FF4DA74056835
:100DA00004EB01142D5905F00F05156105682D5947
:100DB000C5F30725956105682C59240C54614FF43F
:100DC000DC72046802EB0112A4581C700468A45879
:100DD000240A5C700468A458240C9C700468A2580F
:100DE000120EDA704FF4DE72046802EB0112A4589E
:100DF0001C710468A458240A5C710468A458240C6B
:100E00009C710468A258120EDA71006881B1016900
:100E100041F020010161002030BDE468A8E7416A8B
:100E200041F400114162012030BD6D0D1560AFE746
:100E3000C16841F02001C160EDE72DE9F05F054692
:100E4000006800244669D0F804908768D0F80CB098
:100E5000D0F810A0D0F81880F10748D0F90714D0C6
:100E600001218160B80703D5284600F030FA0CE074
:100E7000780702D54FF4006407E0380702D54FF435
:100E8000805402E0284600F021FAF80516D52968BA
:100E90004FF480708860B80503D5284600F019FA31
:100EA0000CE0780502D544F4005407E0380502D57B
:100EB00044F4804402E0284600F00AFAF80316D50C
:100EC00029684FF480308860B80303D5284600F0C5
:100ED00002FA0CE0780302D544F4004407E038033A
:100EE00002D544F4803402E0284600F0F3F93007DC
:100EF00007D55FEACB6004D52968102044F400745C
:100F0000C86070074FF0080707D55FEA0B7004D57B
:100F10002868C760284600F099F9B00706D5286808
:100F2000C068800702D0284600F092F9700607D505
:100F30005FEACA6004D52968102044F4806408611F
:100F4000B00607D55FEA0A7004D52868076128460D
:100F500000F08CF9F00606D528680069800702D0F9
:100F6000284600F084F9B00308D55FEAC96005D5CA
:100F7000296810204860284600F07AF9F00307D568
:100F80005FEA097004D528684760284600F0A4F994
:100F9000300446D55FEA497040D5F00504D55FEAD4
:100FA000C87001D044F00104B00504D55FEA887030
:100FB00001D544F00204700504D55FEA487001D5FC
:100FC00044F00404300529D518F0700F26D008F03D
:100FD0007000402815D006DC102809D020280AD03F
:100FE000302816D10AE050280ED0602811D10EE02A
:100FF00044F008040DE044F010040AE044F020043A
:1010000007E044F0400404E044F0800401E044F4CC
:1010100080742868816921F0700181612968042049
:101020004860002C05D0686A204368622846FFF7B4
:101030008FFEBDE8F09F70B5040003D094F8200047
:1010400010B104E0012070BD204600F081F8206856
:10105000016841F00101016000F01CFC0546052615
:1010600004E000F017FC401B0A2811D820684068F3
:10107000C007F6D02068016821F00201016000F08D
:1010800009FC05460BE000F005FC401B0A2806D9C8
:10109000606A40F40030606284F82060D2E7206823
:1010A00040688007EFD4207E0128206801683DD089
:1010B00021F080010160607E01282068016838D03D
:1010C00021F040010160A07E01282068016833D032
:1010D00021F020010160E07E0128206801682ED007
:1010E00041F010010160207F01282068016829D0AB
:1010F00021F008010160607F01282068016824D088
:1011000021F004010160D4E902010843D4E904128A
:10111000114308436168491E08432168C8610020E3
:101120006062012084F82000002070BD41F0800141
:10113000C0E741F04001C5E741F02001CAE721F0D6
:101140001001CFE741F00801D4E741F00401D9E7ED
:10115000F0B587B0044614216846FFF737F9364BDF
:101160003648DFF8D0E01968D4F800C0334A0325C8
:101170000226092710300024491CF44522D11960A9
:10118000012907D1016841F000710160006800F099
:1011900000700590106840F0080010601068CDE9FC
:1011A000005600F00800CDE9047069462448CDE9F6
:1011B000024500F071FA00221146142000F0D8FB1D
:1011C000142032E0DFF87CE0F44530D1D0F800C0E4
:1011D0004CF0806CC0F800C0D0F800C001290CF0C1
:1011E000806CCDF814C0196007D1016841F000711E
:1011F0000160006800F000700590106840F0020087
:101200001060106802AB00F0020005906020CDE98C
:10121000000683E8B00069460B4800F03DFA002262
:101220001146402000F0A4FB402000F093FB07B0E3
:10123000F0BD000000640040300000203038024063
:10124000000C0240006800400004024070470000AB
:10125000044A0168914202D0034A914201D1FFF74A
:101260008FBA7047006400400068004070477047C4
:101270007047000070B5044690F82000012804D0A3
:10128000606A40F40020606218E0022084F82000C8
:101290002068016821F00101016000F0FBFA0546B9
:1012A0000EE000BF00F0F6FA401B0A2808D9606A79
:1012B00040F400306062052084F82000012070BDF9
:1012C00020684068C007EDD1606270BD704770470C
:1012D000704770477047704770472DE9F0410446EA
:1012E000876D00F0D7FA064694F8350000250228ED
:1012F00006D08020606584F834500120BDE8F0817C
:101300002068016821F0160101602068416921F020
:1013100080014161206C08B9A06C20B1206801688F
:1013200021F0080101602068016821F001010160DD
:101330000CE000F0AFFA801B052807D9202060657B
:10134000032084F8350084F83450D7E7206800681B
:10135000C007EED194F85C103F208840B8600120AF
:1013600084F8350084F834500020C7E790F8351031
:10137000022903D08021416501207047052180F8B2
:1013800035100068016821F00101016000207047FC
:101390002DE9F84304464FF00009CDF8009063486A
:1013A0004FF41651A56D0068B0FBF1F72E6894F864
:1013B0005C10082000FA01F131420FD021680A6860
:1013C00052070BD50A6822F004020A6094F85C10F8
:1013D0008840A860606D40F00100606594F85C1082
:1013E0004FF0010808FA01F0304208D0216849693D
:1013F000090604D5A860606D40F00200606594F8AD
:101400005C1004208840304208D0216809688907B0
:1014100004D5A860606D40F00400606594F85C102D
:1014200010208840304218D021680968090714D577
:10143000A86020680168490304D50068000308D546
:10144000A16C07E00168C90503D4016821F0080117
:101450000160216C09B12046884794F85C10202077
:101460008840304231D021680968C9062DD5A8606E
:1014700094F8350005282068016806D0490347D54F
:10148000006800031DD4616C1CE021F016010160AE
:101490002068416921F080014161206C08B9A06C8D
:1014A00020B12068016821F00801016094F85C1007
:1014B0003F208840A86084F8358084F83490216DFE
:1014C0001FE0E16B09B120468847606D00282BD0F2
:1014D000606DC00714D0052084F8350020680168CD
:1014E00021F0010101600098401C0090B84203D82F
:1014F00020680068C007F6D184F8358084F83490FD
:10150000E16C002910D001B02046BDE8F043084747
:101510000168C905D5D4016821F01001016084F883
:10152000358084F83490CCE7BDE8F883480000208B
:101530002DE9F041044600F0ADF906465CB1022009
:1015400084F83500002584F834502068016821F0C3
:10155000010101600DE00120BDE8F08100F09AF981
:10156000801B052805D920206065032084F83500FC
:10157000F2E720680068C007F0D1226811682048AF
:101580000140D4E901031843D4E903363343184337
:1015900063691843A3691843E3691843236A18432E
:1015A0000843616A042903D1D4E90B1319430843A2
:1015B000106020684069666A20F0070130460E43DB
:1015C000012704280CD1A06A0643E06A40B12046F6
:1015D000FFF76CFA20B14020606584F83570BAE7F7
:1015E000206846612046FFF74DFA94F85C203F21C1
:1015F00091408160656584F835700020ACE700009B
:101600003F8010F02DE9F0410446866D90F83400DB
:10161000002501280DD0012084F8340094F835709D
:101620000020012F07D084F8340002252846BDE8A9
:10163000F0810220FBE7022784F8357060652046C0
:10164000FFF75EFA94F85C103F208840B060206895
:10165000016841F016010160206C20B1206801682A
:1016600041F0080101602068016841F0010101605A
:10167000DCE7000070B5044600F00CF90546601C7C
:1016800002D004480078044400F004F9401BA04252
:10169000FAD370BD3C0000202DE9F84FDFF8BCA163
:1016A0000022012503264FF00F090AF1040BAAF1CD
:1016B000040E00BF0B6805FA02F42340A34270D168
:1016C0000F7907F00307012F01D0022F16D1876889
:1016D0004FEA420806FA08FC27EA0C07D1F80CC0CA
:1016E0000CFA08FC4CEA070CC0F808C04768A7438E
:1016F0000C79C4F3001494403C4344600C79E443F7
:10170000A4070AD0C4684FEA420C06FA0CF7BC439F
:101710008F6807FA0CF72743C7600C7904F00304BD
:10172000022C12D1D40800EB840CDCF820405707BF
:10173000FF0E09FA07F824EA0804D1F8108008FA25
:1017400007F848EA0408CCF8208004684FEA420C05
:1017500006FA0CF7BC430F7907F0030707FA0CF7FA
:10176000274307604C6814F4403F70D03C4C276816
:1017700047F480472760246822F0030704F480447C
:101780000094384C07EB040CDCF8084897074FEA44
:10179000177809FA08F7BC43334FB84202D1002743
:1017A00024E054E0314FB84201D101271EE0304F10
:1017B000B84201D1022719E02E4FB84201D10327C8
:1017C00014E02D4FB84201D104270FE02B4FB8424F
:1017D00001D105270AE02A4FB84201D1062705E0CA
:1017E000284FB84201D1072700E0082707FA08F779
:1017F0002743CCF80878DAF800405746D1F804C0FF
:101800009C435FEACC2C00D51C433C60DBF80040D5
:101810005F46D1F804C09C435FEA8C2C00D51C4382
:101820003C60DEF800407746D1F804C09C435FEA94
:101830008C3C00D51C433C60084F083F3C68D1F805
:1018400004C09C435FEACC3C00D51C433C60521C66
:10185000102AFFF42FAFBDE8F88F0000083C0140CC
:1018600044380240003001400000024000040240C1
:1018700000080240000C0240001002400014024028
:1018800000180240001C02400AB18161704709043F
:10189000FBE7000001488068704700003C00002022
:1018A0000248816802781144816070473C00002042
:1018B0000B4810B5016841F400710160016841F402
:1018C00080610160016841F480710160032000F0D3
:1018D0006FF80F2000F006F800F024F8002010BD8B
:1018E000003C024070B50D4D04464FF47A712878E3
:1018F000B1FBF0F00A490968B1FBF0F000F00CFB15
:1019000048B9102C07D200222146501E00F030F8B2
:1019100000206C6070BD012070BD00003C00002004
:10192000480000200A4808B5016841F48041016080
:10193000006800F4804000900548001F016841F0F5
:1019400080510160006800F08050009008BD0000E8
:1019500044380240002809DB00F01F0201219140B9
:101960004009800000F1E020C0F80011704700003D
:10197000F0B40E4B1B680C46C3F30223C3F10705FA
:10198000042D00D90425191D072901D2002300E0E8
:10199000DB1E012606FA05F1491E214099409E40B2
:1019A000761E16403143F0BC01F09EBD0CED00E008
:1019B000064900F0070208684FF6FF03184040EAA6
:1019C0000220034A10430860704700000CED00E05D
:1019D0000000FA052DE9F0470E46050065D0DFF856
:1019E0001481D8F80000F7B200F00700B04207D227
:1019F00088F80070D8F8000000F00700B04254D119
:101A000028683D4C810712D5400703D5206840F473
:101A1000E05020602878000703D5206840F460403B
:101A200020602068A96820F0F00008432060287832
:101A3000C0072DD0304968680839012812D0022823
:101A400013D0032811D00968890700292DDA2168ED
:101A500021F0030101432160FFF71CFF814641F2A1
:101A6000883A0EE009688903EFE709688901ECE725
:101A7000FFF710FFA0EB0901514502D90320BDE893
:101A8000F0872068696800F00C00B0EB810FEFD19F
:101A9000D8F80010404601F00701B14207D907709D
:101AA000006800F00700B04201D00120E7E7287885
:101AB000400705D52068E96820F4E050084320601D
:101AC0002878000706D52068296920F4604040EA9C
:101AD000C100206000F038F82168084AC1F3031102
:101AE000515CC8400649086006480068FFF7FAFEE6
:101AF0000020C4E7003C024008380240163C0008C1
:101B0000480000204000002004480549006809689A
:101B1000044AC1F38221515CC8407047480000204C
:101B200008380240263C0008044805490068096856
:101B3000044AC1F34231515CC8407047480000205C
:101B400008380240263C0008154810B5006810F01F
:101B50000C02144813D01449042A0FD0082A0ED1BD
:101B60000F4C241F2268236802F03F025B0207D556
:101B70002068C0F38810A0FB010106E0084610BDF4
:101B80002168C1F38811A1FB00010023FEF788FB47
:101B90002168C1F30141491C4900B0FBF1F010BDBF
:101BA000083802400024F40040787D012DE9F84F08
:101BB00004006ED02078DFF84C93C007A9F104052B
:101BC0004AD009F104000168C1F38101012908D05C
:101BD0000068C0F3810002280AD1D9F80000400251
:101BE00006D52868800337D560680028E1D033E047
:101BF0006068B0F5803F10D0B0F5A02F286810D0F5
:101C000020F480302860286820F4802028606068F4
:101C1000A8B1FFF73FFE06460DE0286840F480308B
:101C2000F4E740F480202860F7E700BFFFF732FEBA
:101C3000801B642873D828688003F7D50CE0FFF771
:101C400029FE064605E000BFFFF724FE801B64283E
:101C5000F0D828688003F7D42078DFF8AC828007BA
:101C60004FF0000A3ED5A748001D016811F00C0F87
:101C700008D00068C0F3810002280BD1D9F8000019
:101C8000400207D42868800716D5E068012800D1F3
:101C900012E033E1E068B8B10120C8F80000FFF7B6
:101CA000F9FD064605E000BFFFF7F4FD801B0228A2
:101CB000C0D828688007F7D52868216920F0F80087
:101CC00040EAC10028600DE0C8F800A0FFF7E2FD7F
:101CD000064604E0FFF7DEFD801B02281FD82868B7
:101CE0008007F7D42078000722D5864F874861699E
:101CF000703771B101210160FFF7CCFD064604E0A9
:101D0000FFF7C8FD801B022809D838688007F7D57F
:101D10000EE0C0F800A0FFF7BDFD064605E082E03A
:101D2000FFF7B8FD801B02287DD838688007F7D4FC
:101D30002078400768D5DFF8CCB100270BF13C0BC9
:101D4000DBF80000C0000BD4DBF8001041F080513C
:101D5000CBF80010DBF80000012700F08050009065
:101D60006B4E3068C00510D4306840F4807030602D
:101D7000FFF790FD009005E0FFF78CFD0099401AF9
:101D8000022850D83068C005F6D55E4EA0686C3683
:101D900001280FD00528306810D020F001003060F5
:101DA000306820F004003060A068B8B1FFF772FD21
:101DB00000900FE0306840F00100F4E740F00400CC
:101DC0003060F7E7FFF766FD0099411A41F288306D
:101DD000814266D830688007F4D50EE0FFF75AFDDF
:101DE000009007E0FFF756FD0099411A41F2883054
:101DF000814256D830688007F4D42FB1DBF8001048
:101E000021F08051CBF80010A069C8B33D49091DED
:101E10000968C1F3810102294AD00228504607D03F
:101E2000C8F8600000E03CE0FFF734FD04463BE00A
:101E30004746C8F86000FFF72DFD064605E000BFE5
:101E4000FFF728FD801B02282BD828688001F7D4D3
:101E5000D4E907010843A16A2E4A490802EB01416F
:101E6000626A41EA8211084394F82C1040EA016149
:101E7000C9F8001001203866FFF70CFD044606E0A3
:101E80003EE000BFFFF706FD001B022809D82868C6
:101E90008001F7D534E000BFFFF7FCFC001B0228EF
:101EA00002D90320BDE8F88F28688001F4D427E028
:101EB0000128F7D0D9F80000E26900F480019142CE
:101EC0001CD1226A00F03F01914217D147F6C07140
:101ED000626A0140B1EB821F10D1A26A4FF0FF335A
:101EE00000F4403103EB5202B1EB024F06D194F8FB
:101EF0002C1000F07060B0EB016F01D00120D1E731
:101F00000020CFE70438024000004742800E4742DD
:101F1000007000400000FFFF10B5401EB0F1807F50
:101F200001D3012010BD4FF0E02460610F21601744
:101F300001F0DAFA0020A06107202061002010BD26
:101F400010B590F83C20012A22D0012280F83C20D4
:101F5000CA688C6822F4407222434C6822F4806282
:101F600022430C6822F4006222430C6922F480525E
:101F700022434C6922F400522243C969002322F40F
:101F800080420A4301684A6480F83C30002010BD5A
:101F9000022010BD70B590F83C20012A32D00124F7
:101FA00080F83C40022280F83D2003685A689D6812
:101FB00022F070060A6832435A60134B02689A4254
:101FC00014D0B2F1804F11D0104B9A420ED0104B6A
:101FD0009A420BD00F4B9A4208D00F4B9A4205D031
:101FE0000E4B9A4202D00E4B9A4204D1496825F01A
:101FF00080031943916080F83D40002180F83C1037
:10200000084670BD022070BD000001400004004081
:1020100000080040000C0040000401400040014066
:102020000018004010B5040003D094F83D0010B132
:1020300007E0012010BD002084F83C00204600F09D
:102040001FF8022084F83D00211D206800F0B8FE32
:10205000012084F8460084F83E0084F83F0084F8AC
:10206000400084F8410084F8420084F8430084F87A
:10207000440084F8450084F83D00002010BD0000B5
:1020800038B5054600681549884225D11448002115
:10209000026842F0010202600068134C00F0010087
:1020A0000090104820604FF0406060604020C4E91C
:1020B000020100012061400060618000A0614011C8
:1020C000E0610002C4E908012046FFF731FA08B1D7
:1020D000FEF735FD6C62A56338BD000000000140CD
:1020E00044380240286402405401002070B5044680
:1020F00090F83C000025012817D0012684F83C60A8
:10210000022084F83D002068826822F0770222F4E1
:102110007F4282600868502838D00DDC20284FD0DC
:1021200005DC90B3102811D14AE0022070BD3028A0
:1021300046D040280AD13BE060282FD070280DD02F
:10214000B0F5805F03D0B0F5005F12D0012584F8B0
:102150003D60002084F83C00284670BDCB68D1E982
:102160000121206800F012FF2068816841F07701AA
:1021700009E0CB68D1E90121206800F007FF206861
:10218000816841F480418160E1E719E0CA684968EB
:10219000206800F0CFFF5021206806E0CA68496837
:1021A000206800F0D8FF6021206800F0F9FECEE73B
:1021B000CA684968206800F0BDFF40212068F4E744
:1021C000226801461046F0E77047000010B586B05F
:1021D000044614216846FEF7F9F80E492068884243
:1021E00016D10D480021026842F01002026000681A
:1021F00000F0100005904FF4007000900220CDE92F
:1022000001010120CDE9031069460448FFF744FAB3
:1022100006B010BD000001403038024000100240FE
:1022200070B5044690F83C0000260D4601280FD0FA
:10223000012084F83C006AB1042A1DD0082A2FD05E
:102240000C2A3FD00126002084F83C00304670BDA7
:10225000022070BD206800F0ABFE2068816941F06B
:10226000080181612068816921F004018161206891
:1022700081692A69114311E0206800F0C9FE2068D5
:10228000816941F4006181612068816921F4806184
:102290008161206881692A6941EA02218161D2E76E
:1022A000206800F0EBFE2068C16941F00801C161BF
:1022B0002068C16921F00401C1612068C1692A69EF
:1022C000114311E0206800F00DFF2068C16941F45E
:1022D0000061C1612068C16921F48061C161206829
:1022E000C1692A6941EA0221C161ACE710B5040065
:1022F00003D094F83D0010B107E0012010BD00208C
:1023000084F83C00204600F01EF8022084F83D00CE
:10231000211D206800F054FD012084F8460084F857
:102320003E0084F83F0084F8400084F8410084F8BF
:10233000420084F8430084F8440084F8450084F89F
:102340003D00002010BD7047704770472DE9F041F7
:1023500017460D0004464FF000060CD0042D11D096
:10236000082D16D094F84100022819D094F84100A5
:10237000012818D07BE094F83E00022810D094F891
:102380003E00F5E794F83F00022809D094F83F009A
:10239000EEE794F84000022802D094F84000E7E706
:1023A0000220BDE8F0810FB9002B60D14C494D4AA5
:1023B000DFF834C102204DB1042D18D0082D27D0EC
:1023C00084F841000C2D44D0012687E084F83E00BB
:1023D000606AC163606A39460264606AC0F84CC0D2
:1023E0002268606A3432FFF70DF988BB21E084F877
:1023F0003F00A06AC163A06A39460264A06AC0F8BF
:102400004CC02268A06A3832FFF7FCF800BB15E028
:1024100084F84000E06AC163E06A39460264E06A19
:10242000C0F84CC02268E06A3C32FFF7EBF878B99C
:1024300009E02068C16841F400711EE02068C168AD
:1024400041F4806119E02068C16841F4006114E042
:102450000DE0206BC163206B39460264206BC0F82D
:102460004CC02268206B4032FFF7CCF808B1012045
:1024700097E72068C16841F48051C1600122294674
:10248000206800F001FD19492068194A884201D0EE
:10249000904203D1436C43F4004343642068884274
:1024A00013D0B0F1804F10D0124988420DD012499C
:1024B00088420AD01149884207D0904205D010497D
:1024C000884202D00F49884204D1816801F0070197
:1024D000062903D0016841F001010160304660E740
:1024E000A32E0008012F0008392F0008000001402A
:1024F000000401400004004000080040000C0040BF
:10250000004001400018004070B50D0004464FF037
:10251000000607D0042D0CD0082D11D00C2D16D09C
:10252000012648E02068C16821F40071C160606A3A
:1025300013E02068C16821F48061C160A06A0CE0EA
:102540002068C16821F40061C160E06A05E020688C
:10255000C16821F48051C160206BFEF707FF0022A3
:102560002946206800F090FC184B41F211112068B8
:102570008A10984202D0164B984209D1036A0B4246
:1025800006D1036A134203D1436C23F4004343642E
:102590002068036A0B4206D1016A114203D1016827
:1025A00021F00101016001203DB1042D08D0082D6A
:1025B00009D084F84100304670BD84F83E00FAE747
:1025C00084F83F00F7E784F84000F4E7000001409A
:1025D0000004014070477047F8B501680446086878
:1025E000CA684B6910F00F0F4FF0000559D003F087
:1025F000010602F49077374365D0C10705D0D105B5
:1026000003D5216C41F001012164410705D5D907AB
:1026100003D0216C41F002012164810705D5D9075F
:1026200003D0216C41F004012164010707D502F0B9
:102630002001314303D0216C41F008012164216C59
:1026400000293AD0800604D5900602D5204600F035
:10265000C3FD20684069216CC0F38010090700D4D5
:1026600060B3204600F091FD20684069400621D506
:102670002068143050E8001F21F0400140E80012AB
:10268000002AF5D1A06BA8B16C490165A06BFEF7DB
:102690006DFE002811D0A06B016D01B0BDE8F040C7
:1026A000084783060FD593060DD52046BDE8F840B0
:1026B00000F092BD2046FFF78EFFF8BD2046FFF7E1
:1026C0008AFF2564F8BD266B2023012E79D1C6062A
:1026D00077D5D60675D508684868009048694006E1
:1026E00040D5A16B086840680004000CEAD0A28DB8
:1026F0008242E7D9E085C869B0F5807F2DD0206897
:102700000C3050E8001F21F4807140E80012002ACC
:10271000F5D12068143050E8001F21F0010140E895
:102720000012002AF5D12068143050E8001F21F073
:10273000400140E80012002AF5D184F83E302563BC
:1027400020680C3050E8001F21F0100140E8001212
:10275000002AF5D1A06BFEF7C0FDA08DE18D401AD7
:1027600081B229E0A08DE18D401A81B2E08D002870
:10277000A8D00029A6D020680C3050E8002F22F401
:10278000907240E80026002EF5D12068143050E801
:10279000002F22F0010240E80026002EF5D184F837
:1027A0003E30256320680C3050E8002F22F01002E4
:1027B00040E80023002BF5D12046FFF70BFFF8BDC2
:1027C000FFE705062BD5150629D594F83D002128ED
:1027D000F5D1A068B0F5805F01D12069B0B1206A61
:1027E000411C2162216800784860E08C401E000492
:1027F000000CE084E3D12068C16821F08001C16051
:102800002068C16841F04001C160D8E7206A0088B3
:10281000C0F308004860206A801C2062E5E740069B
:10282000CDD55006CBD5CA68204622F04002CA60FA
:1028300084F83D3000F0ADF8C1E700007B310008BE
:1028400070B5040004D094F83D00002510B106E0F6
:10285000012070BD84F83C50204600F023F824206D
:1028600084F83D002068C16821F40051C160204611
:1028700000F012FD2068016921F490410161206897
:10288000416921F02A0141612068C16841F4005189
:10289000C1602564202084F83D0084F83E000020BB
:1028A00070BD00002DE9F04186B00646142168464F
:1028B000FDF78CFD3149306888425BD130480024F7
:1028C000016841F400310160006800F400300590B7
:1028D0002B481038016841F0010101600068694629
:1028E00000F0010005900C2000900220CDE90104C9
:1028F00003200390072004902248FEF7CDFE234DCD
:1029000021484FF000672860C5E901744FF48068E2
:10291000C5E9034880156C61C5E906404FF44030B5
:10292000C5E908042846FEF703FE08B1FEF707F9DB
:10293000B563AE63154D144860351830E5E80207FD
:102940004020A5E81101114845F814496030AC61F8
:10295000EC612C626C62FEF7EBFD08B1FEF7EFF85C
:102960007563002211462620AE63FFF701F826208A
:10297000FEF7F0FF06B0BDE8F08100000044004023
:10298000403802400000024088600240F801002008
:1029900070477047FEE70000014881680847000063
:1029A0007C00002010B5064C1921A0F500702170A4
:1029B000033804D1034800F0E9FD0020607010BD29
:1029C000B900002048030020104810B50E490160EE
:1029D0000321416000214FF400228160C0E903120D
:1029E0004FF4401242610176012242768176C1762F
:1029F00001774277FEF71FFB002803D0BDE81040A7
:102A0000FEF79DB810BD000000640040BC0000202F
:102A1000104810B50E4901600321416000214FF4B8
:102A200000228160C0E903124FF440124261017636
:102A3000012242768176C17601774277FEF7FBFA72
:102A4000002803D0BDE81040FEF779B810BD0000A3
:102A500000680040E4000020154808B5016841F412
:102A600000110160016801F400110091016841F456
:102A7000800101600068002200F48000009011468F
:102A80001020FEF775FF1020FEF764FF00221146AC
:102A90001120FEF76DFF1120FEF75CFF00221146AA
:102AA0003920FEF765FFBDE808403920FEF752BF28
:102AB0003038024070B586B014216846FDF786FCB8
:102AC00022480024016841F004010160016801F01E
:102AD00004010591016841F080010160016801F085
:102AE00080010591016841F001010160016801F078
:102AF00001010591016841F010010160016801F0D8
:102B000010010591016841F008010160016801F0C0
:102B100008010591016841F00201016000680C4E56
:102B200000F002004FF4D8450590002229463046B7
:102B3000FEF7AAFE01200095CDE901046946304662
:102B40000394FEF7A9FD06B070BD000030380240C6
:102B50000008024010B596B000240F941094119410
:102B6000129413941C2108A81494FDF72FFC202123
:102B70006846FDF72BFC2848264901600121C0E981
:102B800001146921C0E9031444618461FFF74AFA22
:102B900008B1FDF7D4FF4FF480500F900FA91E48E5
:102BA000FFF7A4FA08B1FDF7CAFF1B48FFF79EFB29
:102BB00008B1FDF7C4FF139413A917481494FFF745
:102BC000E9F908B1FDF7BBFF602008901920CDE9B5
:102BD00009040B940C940D94002208A90E480E943D
:102BE000FFF71EFB08B1FDF7AAFF00944FF4005059
:102BF000CDE9044002940194039469460648079481
:102C0000FFF79EF908B1FDF79AFF0348FFF7DEFAD8
:102C100016B010BD000001400C0100200C4810B59A
:102C20000A4901600B494160002181600C22C160AA
:102C3000C0E904128161C161FFF702FE002803D0E0
:102C4000BDE81040FDF77BBF10BD00000044004010
:102C5000B4010020A0860100FEE7FEE7C0E91012E3
:102C600080EC030A704770470268002111800268F7
:102C70005180026891800268D180036804221A7230
:102C800003685A720268D181026811820268518217
:102C900002681175026851750268D182026851811B
:102CA00000688181014801707047000078000020B1
:102CB00010B5064C01462046E2689047216920463F
:102CC000884721680020088310BD00007C00002098
:102CD0007047000010B5FEF7E3FD0C48B7EE000AA0
:102CE0000B4AD0ED000A70EE800AC0ED000AD0ED6C
:102CF000010A30EE800A10EE101A80ED010A9142AE
:102D000003DB9FED040A80ED010A10BD34000020B2
:102D100000401C450000000030B593B030216846EB
:102D2000FDF754FB14210CA8FDF750FB1E480025AD
:102D3000016841F080510160006800F080501190FE
:102D40001A48016841F4804101600068022400F4DF
:102D50008040119001200090000401908001CDE995
:102D60000640192008904FF4A870CDE9090404200A
:102D70000B906846FEF71AFF08B172B6FEE70CA981
:102D80000F2081E831004FF4A0500F904FF4805095
:102D9000109005210CA8FEF71DFE002801D072B688
:102DA000FEE713B030BD0000403802400070004024
:102DB0000248016841F470010160704788ED00E04D
:102DC000F0B50268254C264D264E274F274B4FF075
:102DD000804CA04209D0604507D0A84205D0B0423F
:102DE00003D0B84201D0984204D122F0700E4A6854
:102DF00042EA0E02A0421BD0604519D0A84217D06B
:102E0000B04215D0B84213D0984211D0184DA84204
:102E10000ED0184DA8420BD0174DA84208D0174D20
:102E2000A84205D0164DA84202D0164DA84203D1A3
:102E300022F44075CA682A434D6922F080022A4371
:102E400002608A68C2620A688262A04201D0984227
:102E500001D10969016301214161F0BD0000014018
:102E60000004004000080040000C00400004014045
:102E7000004001400044014000480140001800406B
:102E8000001C00400020004010B501F01F0301218C
:102E9000046A99408C430462016A9A4011430162BA
:102EA00010BD10B5846B0121626A824205D1217781
:102EB000C069F8B984F83E101CE0A26A824206D1CB
:102EC00002222277C069A8B984F83F1012E0E26AB2
:102ED000824206D104222277C06958B984F8401092
:102EE00008E0226B824205D108222277C06908B926
:102EF00084F841102046FFF727FA0020207710BD04
:102F000010B5846B616A814201D101200DE0A16A94
:102F1000814201D1022008E0E16A814201D104200E
:102F200003E0216B814201D1082020772046FFF782
:102F30000CFA0020207710BD10B5846B0121626A65
:102F4000824203D1217784F83E1019E0A26A8242BE
:102F500004D10220207784F83F1011E0E26A824217
:102F600004D10420207784F8401009E0226B8242CB
:102F700004D10820207784F8411001E084F83D1046
:102F80002046FFF721F90020207710BD10B5846896
:102F900042EA032224F47F440A432243826010BDA4
:102FA000826822F070020A4342F007018160704794
:102FB000F0B5026A22F001020262036A4268846983
:102FC000124E24F073050C682C4323F002058B6825
:102FD0002B430D4DA84201D0B04205D123F0080784
:102FE000CB683B4323F00403A84201D0B04205D193
:102FF0004D6922F4407215438A692A434260846114
:10300000496841630362F0BD0000014000040140D3
:10301000F0B5026A22F010020262026A4368846913
:103020000D6824F4E64444EA05248D6822F0200269
:1030300042EA05120F4D104EA84201D0B04206D10F
:10304000CF6822F0800242EA071222F04002A84232
:1030500001D0B04207D14D6923F4406343EA8503B0
:103060008D6943EA85034360846149688163026234
:10307000F0BD00000000014000040140F0B5026A0C
:1030800022F480720262026A4368C46922F4007208
:1030900024F073050C68124E2C438D6842EA052219
:1030A0000E4DA84201D0B04206D1CF6822F4006292
:1030B00042EA072222F48062A84201D0B04207D13E
:1030C0004D6923F4405343EA05138D6943EA051320
:1030D0004360C4614968C1630262F0BD0000014001
:1030E0000004014030B5026A22F480520262046A90
:1030F0004268C3690D6823F4E64343EA05238D68FB
:1031000024F4005444EA0534084DA84202D0084D86
:10311000A84204D14D6922F4804242EA85124260FD
:10312000C36149680164046230BD000000000140D1
:103130000004014010B5036A046A24F0010404622B
:10314000846924F0F00444EA021423F00A020A43DA
:103150008461026210BD10B5036A23F0100303629C
:103160008369046A23F4704343EA023224F0A00323
:1031700043EA01118261016210BD10B5806B00212C
:10318000C185C184FFF727FA10BD01680C3151E8F1
:10319000002F22F4907241E80023002BF5D1016842
:1031A000143151E8002F22F0010241E80023002BE6
:1031B000F5D1016B012909D101680C3151E8002FCB
:1031C00022F0100241E80023002BF5D1202180F8E5
:1031D0003E1000210163704708B590F83E10222987
:1031E00001D0022008BD82684FF480539A4201D179
:1031F000016921B1816A9A421BD04AB10AE0026892
:10320000816A5268C2F308020A80816A891C08E058
:10321000026972B10268526802F07F020A70816A24
:10322000491C8162C18D491E0904090CC18503D066
:1032300019E002685268F1E70168CA6822F02002CA
:10324000CA600168CA6822F48072CA6001684A696B
:1032500022F001024A61202180F83E10016B012911
:1032600003D0FFF795FB002008BD00210163016832
:103270000C3151E8002F22F0100241E80023002B0E
:10328000F5D101680A68D20602D50A68496800913A
:10329000818DFFF79FF9E6E770B504460068016984
:1032A000E26821F44051114301612169A068E2699B
:1032B00008436169114308432168CA6849F20C63F5
:1032C0009A430243CA6020684169A26921F44071AF
:1032D0001143416131492068884202D03049884217
:1032E00002D1FEF721FC01E0FEF70EFCE2690023AB
:1032F000192164253226B2F5004F626828D0A0FB60
:103300000101930F9200FCF7CBFF0146B0FBF5F0F3
:103310006FF01802504301EB800006EB0010B0FB89
:10332000F5F000F0F002B1FBF5F002EB0012B1FB9A
:10333000F5F06FF01803584301EB800006EB001026
:10334000B0FBF5F000F00F0021681044886070BDFC
:10335000A0FB010192185B41FCF7A2FF0146B0FB04
:10336000F5F00201B1FBF5F06FF01803584301EBE3
:10337000800006EBC000B0FBF5F000F0F80002EBB7
:103380004002B1FBF5F0584301EB800006EBC000B2
:10339000B0FBF5F000F00700D6E700000010014098
:1033A0000014014010B50448FDF7BEFBBDE8104015
:1033B0000148FFF711B90000B40100200C4808B51E
:1033C00001680A684A680092CA6842F01002CA603E
:1033D00001684A6942F040024A6112210091016885
:1033E000044B806BA3F11802091DFDF729FA08BDF3
:1033F000B401002078110020FFF75ABCFEE700005E
:1034000000210B4A23234FF4C06000BF22F8113083
:10341000491C89B28142F9D300214FF4DC6300BF1B
:1034200022F81010401C80B29842F9D300F002B884
:10343000A00300204FF4DC63024A00210248FEF79B
:1034400085BF0000A00300200C01002070B586B0ED
:1034500000246B460D0601D5462500E023251D55A9
:103460004906641C090EA4B2082CF3D300210406FB
:1034700001D5462400E023245D184006491C000EB7
:1034800089B22C720829F2D30020110601D54621F9
:1034900000E023211C18401C217451060A0E80B242
:1034A0000828F2D30F4A0021002001EB41041D5CE3
:1034B00000EBC406401C22F816501828F7DB491C04
:1034C0004029F1DB4FF4C06000214FF4DC6300BF02
:1034D00022F81010401C9842FADBFFF7ABFF06B051
:1034E00070BD0000A00300200907090E002804DBBE
:1034F00000F1E02080F80014704700F00F0000F1A8
:10350000E02080F8141D7047D0ED000AF4EEC00AE8
:10351000F1EE10FA01DD80ED000AD0ED000AB1EE07
:10352000400AF4EEC00AF1EE10FA01D280ED000A72
:103530007047000010B50068016841F40021016087
:103540000148FFF759FF10BD6011002010B5006859
:10355000016821F4002101600148FFF74DFF10BD13
:103560007811002008490A7802704A7842708A78F7
:103570008270CA78C2700A7902714A7942718A7976
:103580008271C979C1717047A900002010B5104936
:10359000038943810A8852BA12B202818C88D31AF5
:1035A00064BA44804C88B3F5805F64BA048089793A
:1035B0008171016901DD491E03E013F5805F01DAC5
:1035C000491C016102EB41318289891A416110BDB8
:1035D000B10000202DED048BFEF76AF9FFF79CFB8C
:1035E000FFF768FAFFF738FAFFF7EEF9FFF710FA7E
:1035F000FFF714FBFFF7AEFAFDF77CF8FDF796F83E
:10360000FFF7DCFEFFF7C8F9FFF7FAFE0021FF2203
:103610000846FFF71BFFE748FDF718F8E648FCF7F8
:1036200069FF0020824683469FEDE40AE44C0126B0
:1036300084ED050A267000F019FAFCF7F7FD40F258
:10364000091190FBF1F201FB120000F5437000EE4E
:10365000100AB8EEC00A84ED060A9FEDDA8AC0EEC1
:10366000080AC4ED070AFCF7E1FD742290FBF2F1B1
:1036700002FB110000F25C7000EE100AB8EEC00A06
:1036800084ED080AC0EE080AC4ED090A94ED070AA1
:103690009FEDCD9A4FF0000939EE400A84ED0A0AF9
:1036A000DFEDCA8AB0EE681ADFEDC90AB3EE040A8C
:1036B00041F2883242F6E061C648C4F80C90FFF748
:1036C000CDFAC54FBB4DDFF81483C34800F046FA6E
:1036D000387E01282ED1FCF739FFFEF7DBF8B0EB7E
:1036E0000A0069EB0B01C83871F1000010D2BA482A
:1036F000FFF7BAFAB748C0ED0B8A85F8039085F852
:103700000A9085F8119085F8189085F81F9011E0BF
:10371000FEF7C0F8B0EB0A0069EB0B034FF4FA7147
:10372000401A73F1000005D200231A4619461846C4
:10373000FDF750F820782871E872A874687685F84B
:1037400020006078C0EBC0012944CE70B8F80010AA
:1037500061BBB8F8021049BB974901EBC000C078C3
:1037600020BB9F489F4A0068904213DAA07801EB83
:10377000C000C07870B9E07801EBC000C07848B9EB
:10378000207901EBC000C07820B9607901EBC0005E
:10379000C078C0B385F8039085F80A9085F8119039
:1037A00085F8189085F81F9000F060F982486178DC
:1037B00000EBC101C978012904D1A178C1EBC10195
:1037C0002944CE70A17800EBC101C978012904D148
:1037D000E178C1EBC1012944CE70E17800EBC10171
:1037E000C978012904D12179C1EBC1012944CE70E6
:1037F000217900EBC100C078012804D16079C0EBC9
:10380000C0002844C670387E01287DD1002176484A
:10381000FEF77AFE3868407AE071217A814205D05D
:10382000022803D1A17929B10021A1712072A079C8
:1038300010B10AE00121F8E7664800231A46C0EDFE
:103840000B8A19461846FCF7C5FFB8F90010404628
:1038500011F5167F07DCB0F90220B2F5167F02DB06
:10386000667284F80A9084F80990A67211F5167FA2
:1038700013DCB8F90200B0F5167F0EDB86F313886F
:10388000BFF34F8F59480168594A01F4E061114371
:103890000160BFF34F8F00BFFDE7DFED560AC4EDB7
:1038A000040AA079012816D15348B0F9000000EEAF
:1038B000100A4848B8EEC00A00F0A0F845480023B6
:1038C000194690ED0B0ABDEEC00A10EE100A02B2C6
:1038D0001846FCF77FFF98F80900032805D100215E
:1038E000267096220846FFF7B1FD98F809000128D6
:1038F00006D1002284F8009011469620FFF7A6FD1D
:103900004046B8F9002000E04DE0B2F5167F14DB28
:10391000B0F9021011F5167F0FDC85F8039085F8D9
:103920000A9085F8119085F8189085F81F90AE716F
:103930006E732E75EE7685F82260017A022932D1F7
:103940008ABBB8F8020070BB00F090F8FCF76EFC80
:1039500040F2091190FBF1F201FB120000F54370F7
:1039600000EE100AB8EEC00A84ED060AC0EE080A9E
:10397000C4ED070AFCF75AFC742190FBF1F201FB3D
:10398000120000F25C7000EE100AB8EEC00A84ED7E
:10399000080AC0EE080AC4ED090A94ED070A39EED8
:1039A000400A84ED0A0AFCF7D1FD0120FDF762FE12
:1039B0008BE60000F0110020C811002000C0624416
:1039C0000000002000007A448FC205400000000083
:1039D0009A99193FB80200207C0000205400002072
:1039E00038000020000016450C0100200CED00E01E
:1039F0000400FA0500806D444803002000B580ED06
:103A0000040A30EEC00AC0ED030A014680ED070A41
:103A1000D0ED000A60EE800AC0ED080AD0ED090A78
:103A200090ED011A41EE000AC0ED090A90ED110A6D
:103A30002430B8EE400AFFF767FD91ED080AD1ED9A
:103A4000090A01F12C0030EE200AD1ED0A0A30EE0D
:103A5000200A81ED0B0A91ED100AB8EE400AFFF73B
:103A600053FD91ED0B0A81ED0C0A00BD70B5FCF71A
:103A7000DDFB052590FBF5F1224C05FB1100607084
:103A8000FCF7D4FB90FBF5F105FB1100A070617809
:103A9000C0B28842F4D000BFFCF7C8FB90FBF5F140
:103AA00005FB1100E070C1B260788142F4D0A078CB
:103AB0008142F1D0FCF7BAFB90FBF5F105FB110058
:103AC00020716178C0B28842F4D0A1788842F1D0E8
:103AD000E1788842EED000BFFCF7A8FB90FBF5F13F
:103AE00005FB110060716178C0B28842F4D0A17802
:103AF0008842F1D0E1788842EED021798842EBD03B
:103B000070BD00000000002010B501684FF4A563EF
:103B10000022B1F9004004F525749C4211D8B1F996
:103B2000024004F525749C420BD8B1F9044004F519
:103B300025749C4205D8B1F9064004F525749C42D1
:103B40000AD9042343760A804A808A80CA800320E7
:103B5000087248724A8110BD427610BD01680A8B16
:103B6000521C12B20A83B1F91A309A4203DD0B8358
:103B7000012101767047017E0129FBD100210176E8
:103B8000FFF772B810B501680446488B401C0883E3
:103B9000012020762046FFF767F8A07E012802D09A
:103BA0000220607610BD0020FBE700680021018341
:103BB0007047000038B5044600680168406800900E
:103BC0000F4884421BD1A06B0068016821F00101FD
:103BD0000160A06B01684A68062A06D109680903DA
:103BE00001D5416C00E0C16B8847A16B18200968C2
:103BF0004860A06B0068016841F00101016038BDB8
:103C0000B40100204FF04070E1EE100A704700064A
:103C1000101600061016000000000000000001024F
:103C20000304060708090000000001020304000065
:103C3000503C000800000020BC000000C401000847
:103C40000C3D0008BC0000209C180000E0010008AA
:103C50000000000000000000000000000000000064
:103C60000000000000000000000000000000000054
:103C70000000000000000000000000000000000044
:103C80000000000000000000000000000100000033
:103C900010000000000000000024F40000000000FC
:103CA0000000000000000000000000000000000014
:103CB00000000000000000000000000000003C00C8
:103CC000050000000000000000000000540000207B
:103CD00070000020853B0008AB3B0008093B000852
:103CE0005D3B000801000100000000000000000032
:103CF00000000000000000000000000000000000C4
:0C3D0000000000000000000000000000B7
:040000050800018965
:00000001FF
