:020000040800F2
:10000000C8AE0020CD0100089B250008E9200008AB
:1000100099250008DD030008C12900080000000040
:10002000000000000000000000000000CD250008D6
:10003000AF040008000000009D250008CF2500083F
:10004000E7010008E7010008E7010008E7010008F0
:10005000E7010008E7010008E7010008E7010008E0
:10006000E7010008E7010008E70100083D04000877
:100070004904000855040008E7010008610400086D
:100080006D04000879040008E7010008E701000892
:10009000B52900081D040008E7010008E701000871
:1000A000E7010008E7010008E7010008E701000890
:1000B000E7010008E7010008E7010008E701000880
:1000C000E7010008E7010008E7010008E701000870
:1000D000E7010008E7010008E7010008E701000860
:1000E000E7010008E7010008E7010008E701000850
:1000F000E7010008E7010008E7010008E701000840
:10010000E7010008E7010008E7010008E70100082F
:10011000E7010008E7010008E7010008E70100081F
:10012000E7010008E7010008E7010008E70100080F
:1001300000F002F800F03AF80AA090E8000C8244BF
:100140008344AAF10107DA4501D100F02FF8AFF29C
:10015000090EBAE80F0013F0010F18BFFB1A43F0A5
:10016000010318477439000094390000103A24BF85
:1001700078C878C1FAD8520724BF30C830C144BF0C
:1001800004680C607047000000230024002500264E
:10019000103A28BF78C1FBD8520728BF30C148BFEA
:1001A0000B6070471FB51FBD10B510BD00F058F8AB
:1001B0001146FFF7F7FF03F049F800F076F803B4B3
:1001C000FFF7F2FF03BC00F07DF80000094880470C
:1001D00009480047FEE7FEE7FEE7FEE7FEE7FEE729
:1001E000FEE7FEE7FEE7FEE704480549054A064B41
:1001F000704700003126000831010008C8A800201F
:10020000C8AE0020C8AA0020C8AA00204FF00002F3
:1002100000B5134694469646203922BFA0E80C50FC
:10022000A0E80C50B1F12001BFF4F7AF090728BFD7
:10023000A0E80C5048BF0CC05DF804EB890028BF53
:1002400040F8042B08BF704748BF20F8022B11F07C
:10025000804F18BF00F8012B7047704770477047F8
:10026000754600F02BF8AE4605006946534620F06F
:100270000700854618B020B5FFF7B6FFBDE820405F
:100280004FF000064FF000074FF000084FF0000B52
:1002900021F00701AC46ACE8C009ACE8C009ACE805
:1002A000C009ACE8C0098D46704710B50446AFF3ED
:1002B00000802046BDE81040FFF781BF004870472E
:1002C00068A8002001491820ABBEFEE72600020006
:1002D000704700214171017081704170C1700171DE
:1002E0008171C1714173017281724172C172017376
:1002F0008173C1734175017481744174C174017556
:100300008175C1754177017681764176C176017735
:100310008177C17780F8251080F8201080F82210AE
:1003200080F8211080F8231080F8241080F826101F
:1003300080F82710704700000749064808230A6A1A
:100340000260496A41600146012240F2051000F056
:1003500017B80000340000203DA80020074B00B56E
:100360001921A0F540705981053805D103F12A0003
:1003700002F05AFF0020188100BD00000CA80020E8
:1003800030B589B0002402940090CDE90343087889
:100390008DF8180048788DF8190088788DF81A00C3
:1003A000C8788DF81B0008798DF81C0048798DF805
:1003B0001D0088798DF81E00C8798DF81F00012A6C
:1003C00006D108AB6946044806AA00F085F8054640
:1003D00009B0284630BD000050000020FEE70000B4
:1003E00000B58BB00020012103900490CDE90810E6
:1003F000019002900090CDE90601059069460648FB
:1004000000F0D8F80221044800F054F8024800F047
:10041000ABFB0BB000BD000050000020014800F015
:10042000B5B900005000002010B50349FFF796FF52
:10043000BDE81040FFF780BF2C000020014800F00D
:100440005FBC0000EC020020014800F059BC000035
:1004500098010020014800F053BC0000DC0100209E
:10046000014800F04DBC000020020020014800F0CF
:1004700047BC0000A8020020014800F041BC000079
:100480006402002030B590F840500124AC40C56BA8
:100490006C60046863604368102B036803D0996044
:1004A0000068C26030BD9A600068C16030BD7047AE
:1004B00072B6FEE790F82020012A07D0022A05D064
:1004C000416A41F48021416201207047006842691D
:1004D0000A43426100207047F0B590F8205004684C
:1004E000A468012D05D0022D03D0416A41F480217A
:1004F0005DE014F0406F01D1E50055D5C4F301640F
:10050000022C03D9416A41F4000150E00125A540C5
:100510001D608D684FF4C0739DB1CE6835434E6841
:1005200045EAC605066803EB0417F5514FF4C2759A
:10053000076805EB04150E697E51097D012905D078
:1005400009E00E88CD6845EA4655EBE701684E594B
:1005500046F480764E511179D579567941EA056194
:1005600095792D0445EA062529434FF4C67605689A
:1005700006EB0416A9511178D57841EA0561957802
:1005800052782D0445EA022211434FF4C4750268E3
:1005900005EB04155151006803EB0411425842F079
:1005A000010242500020F0BD416A41F40011416255
:1005B0000120F0BD10B590F820300268012B07D063
:1005C000022B05D0416A41F480214162012010BD17
:1005D000D2F8000240F00100C2F80002087D00F0ED
:1005E0001F0301209840D2F81C328343C2F81C320A
:1005F000CB69B3B9D2F80C328343C2F80C328C8980
:100600004B6864F31F434C6902EBC404C4F84032E6
:100610000C890B6864F31F434C6902EBC404C4F8F3
:100620004432CB69012B16D1D2F80C320343C2F805
:100630000C320C884B6864F31F434C6902EBC40412
:10064000C4F840320C89CB6864F31F434C6902EB59
:10065000C404C4F844328B69002BD2F804320FD0A2
:1006600053EA0003C2F804320B69002BD2F81432AB
:1006700008D00343C2F81432096A012904D008E003
:100680008343EFE78343F5E7D2F81C120143C2F836
:100690001C12D2F8000220F00100C2F80002002073
:1006A00010BD704730B590F82040012C05D0022CC9
:1006B00003D0416A41F480215DE00468002955D0EF
:1006C0002469A40754D04FF4D874056804EB0114CE
:1006D0002D5915F00405956005682D594ED0ED088B
:1006E000556005682C5904F00204D4604FF4DA74A4
:1006F000056804EB01142D5905F00F051561056817
:100700002D59C5F30725956105682C59240C5461B2
:100710004FF4DC72046802EB0112A4581C700468E8
:10072000A458240A5C700468A458240C9C700468C3
:10073000A258120EDA704FF4DE72046802EB011256
:10074000A4581C710468A458240A5C710468A45855
:10075000240C9C710468A258120EDA71006881B1F1
:10076000016941F020010161002030BDE468A8E783
:10077000416A41F400114162012030BD6D0D1560E8
:10078000AFE7C16841F02001C160EDE72DE9F05FFE
:100790000546006800244669D0F804908768D0F8C0
:1007A0000CB0D0F810A0D0F81880F10748D0F907A5
:1007B00014D001218160B80703D5284600F001FA62
:1007C0000CE0780702D54FF4006407E0380702D543
:1007D0004FF4805402E0284600F0F2F9F80516D5EF
:1007E00029684FF480708860B80503D5284600F06A
:1007F000EAF90CE0780502D544F4005407E0380526
:1008000002D544F4804402E0284600F0DBF9F80306
:1008100016D529684FF480308860B80303D5284680
:1008200000F0D3F90CE0780302D544F4004407E06B
:10083000380302D544F4803402E0284600F0C4F9BD
:10084000300707D55FEACB6004D52968102044F44F
:100850000074C86070074FF0080707D55FEA0B7097
:1008600004D52868C760284600F062F9B00706D5AD
:100870002868C068800702D0284600F05BF970063F
:1008800007D55FEACA6004D52968102044F4806463
:100890000861B00607D55FEA0A7004D528680761C9
:1008A000284600F05DF9F00606D528680069800743
:1008B00002D0284600F055F9B00308D55FEAC960B8
:1008C00005D5296810204860284600F04BF9F00350
:1008D00007D55FEA097004D528684760284600F00C
:1008E00075F9300446D55FEA497040D5F00504D566
:1008F0005FEAC87001D044F00104B00504D55FEA96
:10090000887001D544F00204700504D55FEA487090
:1009100001D544F00404300529D518F0700F26D015
:1009200008F07000402815D006DC102809D02028D7
:100930000AD0302816D10AE050280ED0602811D1F4
:100940000EE044F008040DE044F010040AE044F026
:10095000200407E044F0400404E044F0800401E097
:1009600044F480742868816921F0700181612968EC
:1009700004204860002C05D0686A2043686228463D
:10098000FFF78FFEBDE8F09F70B5040003D094F828
:10099000200010B104E0012070BD204600F082F874
:1009A0002068016841F00101016000F05BFC054630
:1009B000052604E000F056FC401B0A2811D82068E8
:1009C0004068C007F6D02068016821F0020101608C
:1009D00000F048FC05460BE000F044FC401B0A28F0
:1009E00006D9606A40F40030606284F82060D2E783
:1009F000206840688007EFD4207E012820680168C5
:100A00003DD021F080010160607E012820680168EE
:100A100038D021F040010160A07E012820680168E3
:100A200033D021F020010160E07E012820680168B8
:100A30002ED041F010010160207F0128206801685C
:100A400029D021F008010160607F01282068016839
:100A500024D021F004010160D4E902010843D4E963
:100A60000412114308436168491E08432168C861A4
:100A700000206062012084F82000002070BD41F059
:100A80008001C0E741F04001C5E741F02001CAE71D
:100A900021F01001CFE741F00801D4E741F0040153
:100AA000D9E7000010B586B00021009101910291B4
:100AB000039100681B49884232D11B48C16941F04B
:100AC0000071C161C16901F000710491816941F057
:100AD000040181618069154C00F0040004904FF41A
:100AE000006000906946204600F0B6FAA01400901D
:100AF00002200190032003906946204600F0ACFAE2
:100B000000221146142000F019FC142000F008FC0B
:100B100000220521152000F011FC152000F000FC3A
:100B200006B010BD00640040001002400008014003
:100B30007047000010B5074902688A4209D1064B88
:100B4000064A0021FFF7AEFD044803490068FFF79D
:100B50006BFC10BD006400402C000020F0A70020BA
:100B6000704770477047000070B5044690F8200049
:100B7000012804D0606A40F40020606218E002207E
:100B800084F820002068016821F00101016000F074
:100B900069FB05460EE000BF00F064FB401B0A281D
:100BA00008D9606A40F400306062052084F82000B3
:100BB000012070BD20684068C007EDD1606270BD43
:100BC0007047704770477047704770477047000024
:100BD0002DE9F05F90F821100024022903D00421B0
:100BE0008163012485E001680A6822F00E020A6030
:100BF00001680A6822F001020A603F4E3E4FB215BA
:100C0000DFF8F4C0DFF8F090DFF8ECA0DFF8E8B030
:100C1000DFF8E4E00168783F13011502ACF1640CE1
:100C2000A9F15009AAF13C0AABF1280BAEF1140E60
:100C30004FF48018B14227D9B9420ED0614512D085
:100C400049451DD0514518D0594518D0714501D19D
:100C5000424615E0294EB14201D1012210E0274E53
:100C60001436B14201D110220AE0244E2836B14296
:100C700006D0224A3C32914201D11A4600E02A466F
:100C80001E49091F0A602BE0B94213D0614517D0F5
:100C9000494522D051451DD059451DD0714501D13E
:100CA00042461AE0B14202D14FF0807215E0134E75
:100CB000B14201D1012210E0104E1436B14201D1EF
:100CC00010220AE00D4E2836B14206D00B4A3C32C3
:100CD000914201D11A4600E02A46074980394A600C
:100CE000012180F82110002180F82010416B01B112
:100CF00088472046BDE8F09F80000240080402407B
:100D00002DE9F05FC16B0A6801680B68046C4FF055
:100D1000040808FA04F8844D844E854FDFF814C2A5
:100D2000DFF81492DFF814A2DFF814B2DFF814E24F
:100D300018EA020F65D05FEA437862D50A68920626
:100D400003D40A6822F004020A60DFF8F0814FF44D
:100D50008062016808F1140813011402414524D986
:100D6000A9420DD0B1420FD0B9421AD0614515D079
:100D7000494515D0514501D1120312E0594501D121
:100D800004220EE0714501D140220AE06D4D143578
:100D9000A94206D06B4A2832914201D11A4600E09E
:100DA00022466749091F0A6029E0A94213D0B142CF
:100DB00015D0B94220D061451BD049451BD05145C3
:100DC00002D14FF4800217E0414502D14FF080621A
:100DD00012E0594501D104220EE0714501D14022B3
:100DE0000AE0584D1435A94206D0564A283291429D
:100DF00001D11A4600E022464B4908394A60C16ACF
:100E000071E04FF0020808FA04F818EA020F70D0F7
:100E10005FEA83786DD50A68920606D40A6822F0E4
:100E20000A020A60012180F82110DFF810814FF4D6
:100E30000072016808F1140813011402414524D915
:100E4000A9420DD0B1420FD0B9421AD0614515D098
:100E5000494515D0514501D1120312E0594501D140
:100E600002220EE0714501D120220AE0354D1435F1
:100E7000A94206D0334A2832914201D11A4600E0F5
:100E800022462F49091F0A6029E0A94213D0B14226
:100E900015D0B94220D061451BD049451BD05145E2
:100EA00002D14FF4001217E0414502D14FF0007219
:100EB00012E0594501D102220EE0714501D12022F4
:100EC0000AE0204D1435A94206D01E4A283291422C
:100ED00001D11A4600E02246134908394A60002130
:100EE00080F82010816A00291CD0BDE8F05F084717
:100EF000FFE70825A540154214D01A0712D50A6845
:100F000022F00E020A6090F84020C36B012101FA22
:100F100002F25A60816380F82110002180F82010CD
:100F2000016BE0E7BDE8F09F080002401C000240B2
:100F30003000024044000240580002406C00024071
:100F4000080402401C04024030B560B11A4B02682C
:100F500014219A4209D2194B1344B3FBF1F18900D1
:100F6000016417490AE0012030BD134B5B42134472
:100F7000B3FBF1F1890001640F490839C163022113
:100F800080F82110136843F6F0718B43F0E90114E7
:100F90002143D0E902452C4321430469214344699C
:100FA00021438469214319431160002141630122D7
:100FB00042770177084630BD08040240F8FFFDBFC4
:100FC0000000024070B5044690F82000002501287A
:100FD0000CD0012084F8200094F821600020012E1C
:100FE00006D084F820000225284670BD022070BD7E
:100FF000022684F82160A0632068066826F00106B6
:1010000006602046FFF73EFAE06A00282068016883
:1010100002D041F00E0106E021F0040101602068D9
:10102000016841F00A0101602068016841F0010196
:101030000160D9E770B5044600F014F90546601C5C
:1010400002D004480078044400F00CF9401BA04290
:10105000FAD370BD0C0000202DE9F84FDFF8C891DD
:10106000002409F1040A0AF1040B23460F270BF1AF
:10107000040ED1E00125A54006EA0502AA4276D178
:10108000DFF8A8C14E68A6EB0C0866452BD00DDC36
:10109000032E34D005DC36B3012E19D0022E2FD109
:1010A0001BE0112E16D0122E2AD119E0B8F5881F98
:1010B00019D006DCB8F5803F15D0B8F5801F1FD1D8
:1010C00011E0B8F5001F0ED0B8F5041F18D10AE0E2
:1010D000CB6815E0CB681B1D12E0CB6808330FE02E
:1010E000CB680C330CE08B682BB1012B4FF008035D
:1010F00003D0456104E0042302E0056100E0002321
:10110000FF2A01D8064601E000F104064FEA8405F3
:1011100001D9A5F12005D6F8008007FA05FC28EAD8
:101120000C0803FA05F548EA0508C6F800804D6882
:10113000ED0070D53E4DAE6946F00106AE61AD6979
:1011400024F0030605F0010500953A4D06EB050C69
:10115000DCF80850A607360F07FA06F825EA080556
:10116000DFF8D480404503D14FF0000825E052E07D
:10117000DFF8C880404502D14FF001081DE0DFF8DC
:10118000C080404502D14FF0020816E0DFF8B4807D
:10119000404502D14FF003080FE0DFF8AC80404536
:1011A00002D14FF0040808E0DFF8A080404502D1EA
:1011B0004FF0050801E04FF0060808FA06F848EA83
:1011C0000508CCF808804D68D9F80060ED034D465D
:1011D00001D5164300E096432E604D68DAF80060B2
:1011E000AD03554601D5164300E096432E604D6889
:1011F000DBF80060ED025D4601D5164300E0964342
:101200002E604D68DEF80060AD02754601D51643CC
:1012100000E096432E60641C0A681646E2407FF4A4
:1012200029AFBDE8F88F0000000401400000111054
:10123000001002400000014000080140000C014085
:10124000001001400014014000180140001C014042
:101250008068084000D0012070470AB101617047E2
:101260000904FBE701488068704700000C0000207B
:101270000248816802781144816070470C000020A8
:10128000074810B5016841F010010160032000F02B
:1012900075F80F2000F006F800F024F8002010BDCB
:1012A0000020024070B50D4D04464FF47A71287845
:1012B000B1FBF0F00A490968B1FBF0F000F0CCFA9C
:1012C00048B9102C07D200222146501E00F036F8F3
:1012D00000206C6070BD012070BD00000C0000207B
:1012E000180000200C4808B5816941F001018161B6
:1012F000816901F001010091C16941F08051C16132
:10130000C06900F0805000900448416821F0E0611D
:1013100041F00071416008BD001002400000014032
:10132000002809DB00F01F020121914040098000E4
:1013300000F1E020C0F8001170470000F0B40E4B3F
:101340001B680C46C3F30223C3F10705042D00D923
:101350000425191D072901D2002300E0DB1E012608
:1013600006FA05F1491E214099409E40761E16401E
:101370003143F0BC01F095BE0CED00E0064900F0F1
:10138000070208684FF6FF03184040EA0220034AAC
:1013900010430860704700000CED00E00000FA0503
:1013A0002DE9F0470F46050061D0434E306800F04C
:1013B0000700B84209D2306820F007003843306097
:1013C000306800F00700B84251D128683B4C8107D3
:1013D00012D5400703D5606840F4E060606028786B
:1013E000000703D5606840F4605060606068A968D9
:1013F00020F0F000084360602878C00728D06868B3
:10140000012810D02168022810D0890700292EDA7F
:10141000616821F0030101436160FFF723FF80460B
:1014200041F288390DE021688903EFE78901EDE792
:10143000FFF718FFA0EB0801494502D90320BDE8DA
:10144000F0876068696800F00C00B0EB810FEFD1A5
:10145000306800F00700B8420BD9306820F0070070
:1014600038433060306800F00700B84201D00120F6
:10147000E5E72878400705D56068E96820F4E06072
:10148000084360602878000706D56068296920F461
:10149000605040EAC100606000F018F86168084AD6
:1014A000C1F30311515CC840064908600648006852
:1014B000FFF7F8FE0020C2E70020024000100240C3
:1014C000C83A0008180000201000002012A185B0C2
:1014D0000FC98DE80F0014A0144A006804905168E9
:1014E000134801F00C03042B10D0082B0ED1C1F3CC
:1014F0008343C9031DF803000AD5516804AAC1F348
:101500004041515C0A4A5043B0FBF1F005B07047CE
:1015100008494843FAE700000203040506070809E2
:101520000A0B0C0D0E0F10100102000000100240FB
:1015300000127A0000093D002DE9F84F040070D038
:101540002078C04DC00749D06868C0F381000128E9
:1015500007D06868C0F38100022809D16868C00319
:1015600006D52868800339D560680028E7D035E0C3
:101570006068B0F5803F0BD010B1B0F5A02F11D04E
:10158000286820F480302860286820F4802002E059
:10159000286840F480302860606890B1FFF762FEF0
:1015A00006460AE0286840F480202860F0E700BF83
:1015B000FFF758FE801B642873D828688003F7D58E
:1015C0000CE0FFF74FFE064605E000BFFFF74AFEBE
:1015D000801B6428F0D828688003F7D420789A4EBE
:1015E00080074FF001094FF0000839D5686810F006
:1015F0000C0F07D06868C0F38100022809D1686821
:10160000C00306D42868800714D52069012808D1B2
:1016100010E02069B0B1C6F80090FFF723FE07463E
:1016200005E00AE1FFF71EFEC01B0228C4D82868A7
:101630008007F7D52868616920F0F80040EAC1000A
:1016400028600DE0C6F80080FFF70CFE074604E0B6
:10165000FFF708FEC01B022823D828688007F7D4AC
:10166000207800072CD57948A169D9B1C0F800903D
:10167000FFF7F8FD074604E0FFF7F4FDC01B022862
:101680000FD8686A8007F7D571484FF4FA5100689F
:10169000B0FBF1F0009000BF0098411E0091FAD21B
:1016A0000EE080E0C0F80080FFF7DCFD074604E0B4
:1016B000FFF7D8FDC01B022875D8686A8007F7D4E9
:1016C0002078400760D5E8690027C00008D4E869A1
:1016D00040F08050E861E869012700F080500090F8
:1016E0005C480168C90513D40168834641F48071E0
:1016F0000160FFF7B7FD824606E000BFFFF7B2FDCD
:10170000A0EB0A0064284ED8DBF80000C005F5D530
:10171000E06801280AD008B1052813D0286A20F013
:1017200001002862286A20F0040002E0286A40F0E4
:1017300001002862E06841F2883B98B1FFF792FD12
:1017400082460BE0286A40F004002862EEE700BF02
:10175000FFF788FDA0EB0A0159455AD8286A80078F
:10176000F6D50CE0FFF77EFD824605E0FFF77AFD37
:10177000A0EB0A0159454CD8286A8007F6D41FB15E
:10178000E86920F08050E861E06988B36968C1F3D6
:101790008101022944D00228C6F8608004D0FFF7F6
:1017A00061FD044638E034E0FFF75CFD074604E0E5
:1017B000FFF758FDC01B02282BD828688001F7D4FA
:1017C000206AB0F5803F05D16868A16820F4003038
:1017D00008436860D4E908010843696821F474117A
:1017E00008436860C6F86090FFF73CFD044606E0D9
:1017F00025E000BFFFF736FD001B022809D8286846
:101800008001F7D51BE000BFFFF72CFD001B02286D
:1018100002D90320BDE8F88F28688001F4D40EE0D7
:101820000128F7D06868226A00F48031914204D11F
:10183000616A00F47010884201D00120EAE70020BC
:10184000E8E70000001002400000424280044242EB
:10185000180000200070004010B5401EB0F1807FDD
:1018600001D3012010BD4FF0E02460610F2160170B
:1018700001F017FC0020A06107202061002010BDAE
:1018800010B590F83C20012A22D0012280F83C209B
:10189000CA688C6822F4407222434C6822F4806249
:1018A00022430C6822F4006222430C6922F4805225
:1018B00022434C6922F400522243C969002322F4D6
:1018C00080420A4301684A6480F83C30002010BD21
:1018D000022010BD70B590F83C20012A2CD00124C4
:1018E00080F83C40022280F83D2003685A689D68D9
:1018F00022F070060A6832435A60104B02689A421E
:101900000ED00F4B9A420BD0B2F1804F08D00D4B46
:101910009A4205D00C4B9A4202D00C4B9A4204D109
:10192000496825F080031943916080F83D4000210B
:1019300080F83C10084670BD022070BD002C0140AC
:10194000003401400004004000080040000C00404A
:1019500010B5040003D094F83D0010B107E0012059
:1019600010BD002084F83C00204600F01FF8022043
:1019700084F83D00211D206800F05CFE012084F801
:10198000460084F83E0084F83F0084F8400084F864
:10199000410084F8420084F8430084F8440084F84D
:1019A000450084F83D00002010BD00002DE9F84FEF
:1019B00080220446DFF804C10568414B0027560029
:1019C000D00020214FF010084FF4805E654533D1E0
:1019D0009D6945F400659D619B693B4D03F400637F
:1019E0000093384BC5E900380023C5E9023283462D
:1019F000C5E9046BC5E9061E92460F46F146284626
:101A0000FFF7A2FA08B1FEF753FD65626C622E4D36
:101A10002C4844351430C5E900080020C5E9020A05
:101A2000C5E9046BC5E906792846FFF78DFA08B1C8
:101A3000FEF73EFDA5623DE0B5F1804F3BD1DD698B
:101A400045F00105DD61DB691F4D03F001030093E3
:101A50001C4B88353C339146064605F1100C9A150F
:101A60008B46C5F81CE08CE84408C5E90038C5E998
:101A70000279F2462846FFF767FA08B1FEF718FD2B
:101A800065626C62104D0F48CC356430C5E90008C2
:101A900005F110018015C5F81CA081E84108C5E9D1
:101AA00002792846FFF750FA08B1FEF701FDA5625A
:101AB0006C6225636C62BDE8F88F0000002C014069
:101AC000001002401C0002409801002070B504463E
:101AD00090F83C00012817D0012584F83C500220E2
:101AE00084F83D002068826822F0770222F47F4269
:101AF00082600868502830D00DDC20284DD005DCED
:101B000098B310283BD148E0022070BD302844D063
:101B1000402834D139E0602828D0702806D0B0F5AC
:101B2000805F2CD0B0F5005F29D10AE0CB68D1E905
:101B30000121206800F046FE2068816841F07701AD
:101B400009E0CB68D1E90121206800F03BFE206864
:101B5000816841F48041816011E0CA684968206869
:101B600000F004FF5021206807E016E0CA684968C9
:101B7000206800F00CFF6021206800F02DFE84F842
:101B80003D50002084F83C0070BDCA684968206858
:101B900000F0ECFE40212068EFE722680146104685
:101BA000EBE7704710B586B00021009101910291DA
:101BB00003912A4C03682A4902222A48A3420AD1E7
:101BC0008B6943F004038B61896901F0040104917E
:101BD0004FF4407129E0B3F1804F1DD0224C4020DA
:101BE000A3422AD18B6943F010038B618969CDE947
:101BF000000201F01001CDE9032169461B48FFF7FF
:101C00002BFA1B48416821F4406141F0E06141F446
:101C10004061416006B010BD8B6943F004038B61E5
:101C2000896901F0040104910321CDE9001269469C
:101C3000CDF80C20FFF710FAECE70E4CA342E9D1E7
:101C40008B6943F008038B618969CDE9000201F0DB
:101C50000801CDE9032169460748EBE7002C014064
:101C60000010024000080140000400400010014044
:101C70000000014000080040000C014070B504461F
:101C800090F83C000D4601280AD0012084F83C0061
:101C900042B1042A18D0082A2AD00C2A4DD139E0A2
:101CA000022070BD206800F09FFD2068816941F02E
:101CB000080181612068816921F004018161206847
:101CC00081692A69114311E0206800F0BDFD206898
:101CD000816941F4006181612068816921F480613A
:101CE0008161206881692A6941EA0221816124E0D9
:101CF000206800F0DFFD2068C16941F00801C16182
:101D00002068C16921F00401C1612068C1692A69A4
:101D1000114311E0206800F001FE2068C16941F420
:101D20000061C1612068C16921F48061C1612068DE
:101D3000C1692A6941EA0221C161002084F83C009E
:101D400070BD10B5040003D094F83D0010B107E059
:101D5000012010BD002084F83C00204600F01EF851
:101D6000022084F83D00211D206800F063FC012062
:101D700084F8460084F83E0084F83F0084F8400070
:101D800084F8410084F8420084F8430084F8440059
:101D900084F8450084F83D00002010BD2DE9F04F87
:101DA00085B0002700970197029703970546304AB0
:101DB0000168304880264FF010084FF480794FF4C6
:101DC000806A4FF0200B91421DD1C16941F00201A0
:101DD000C161C069294C00F0020004902648A76048
:101DE000C4E900088014C4E906B004F10C012046DF
:101DF00081E84006FFF7A8F808B1FEF759FB6C62CE
:101E00006562AC632FE01E4A91422DD1C16941F059
:101E10000401C161C16901F004010491816941F0CB
:101E2000080181618069694600F008000490022081
:101E3000CDE9006003901348FFF70EF90F4C0E48F0
:101E400044346438A760C4E900088014C4E906B0CB
:101E500004F10C01204681E84006FFF775F808B14F
:101E6000FEF726FB6C62656205B0BDE8F08F0000EE
:101E700000040040001002406C000240A802002054
:101E800000080040000C0140704770472DE9F04108
:101E900017460D0004460CD0042D11D0082D16D085
:101EA00094F84100022819D094F84100012818D074
:101EB000A2E094F83E00022810D094F83E00F5E726
:101EC00094F83F00022809D094F83F00EEE794F818
:101ED0004000022802D094F84000E7E70220BDE865
:101EE000F0810FB9002B5BD14749484E484A022088
:101EF00045B1042D16D0082D24D084F841000C2DB6
:101F00003AD16CE084F83E00606A8162606A3946CA
:101F1000C662606A02632268606A3432FFF752F870
:101F2000F0BB1FE084F83F00A06A8162A06A3946D6
:101F3000C662A06A02632268A06A3832FFF742F8DC
:101F400070BB14E084F84000E06A8162E06A3946C0
:101F5000C662E06A02632268E06A3C32FFF732F848
:101F6000F0B937E02068C16841F4007103E02068EF
:101F7000C16841F48061C16001222946206800F0F7
:101F80009FFB24492068244A884201D0904203D113
:101F9000436C43F400434364206888420FD000E060
:101FA0002AE090420BD0B0F1804F08D01B49884204
:101FB00005D01B49884202D01A49884204D1816861
:101FC00001F00701062903D0016841F00101016019
:101FD000002084E72068C16841F40061CBE7206BF2
:101FE0008162206B3946C662206B02632268206BD7
:101FF0004032FEF7E7FF08B1012070E72068C168B2
:1020000041F48051B7E70000DB26000839270008BB
:1020100071270008002C01400034014000040040FA
:1020200000080040000C004070B5044600680D0038
:1020300006D0042D0AD0082D3DD00C2D0DD140E046
:10204000C16821F40071C160606A04E0C16821F4D4
:102050008061C160A06AFEF7BBFD002229462068AE
:1020600000F02EFB1E4B41F2111120688A1098429D
:1020700002D01C4B984209D1036A0B4206D1036A75
:10208000134203D1436C23F4004343642068036A82
:102090000B4206D1016A114203D1016821F001010E
:1020A000016001209DB1042D14D0082D15D084F8B5
:1020B0004100002070BDC16821F40061C160E06A88
:1020C000C9E7C16821F48051C160206BC3E784F87F
:1020D0003E00EEE784F83F00EBE784F84000E8E7D5
:1020E000002C014000340140FEE70000F0B587B04D
:1020F00000206C46150601D51E2500E00F2525544D
:102100005206401C120E80B20828F3D300200A06A3
:1021100001D51E2200E00F2225184906401C090E99
:1021200080B22A720828F2D30020190601D51E2198
:1021300000E00F212218401C117459060B0E80B2CA
:102140000828F2D3234A00214FF49675002001EBB2
:102150004103265C00EBC307401C80B222F81760E5
:102160001828F6D3491C89B2A942EFD34FF4E150A5
:1021700000214FF4E85300BF22F81010401C80B239
:102180009842F9D3144C0020B4F9021000F09AFFE1
:10219000B4F90210282000F095FFB4F90210502085
:1021A00000F090FFB4F90210782000F08BFFB4F932
:1021B0000210A02000F086FFB4F90210C82000F041
:1021C00081FFB4F90210F02000F07CFF00F0F2FC77
:1021D00007B0F0BD300300201C0000200F4810B5F0
:1021E0000D4901600421416000214FF4802281608B
:1021F000C0E90312D2004261017641760122827663
:10220000C17601774277FEF7BFFB002803D0BDE817
:102210001040FEF74DB910BD006400405000002092
:102220001D4808B5416941F0010141614069002242
:1022300000F00100009011460B20FFF77FF80B2003
:10224000FFF76EF8002211460C20FFF777F80C20FC
:10225000FFF766F8002211460D20FFF76FF80D20FA
:10226000FFF75EF8002211460F20FFF767F80F20F6
:10227000FFF756F8002211461020FFF75FF81020F4
:10228000FFF74EF8002211461120FFF757F8BDE87E
:1022900008401120FFF744B80010024070B586B026
:1022A0000024214801940394816941F01001816167
:1022B000816901F010010491816941F0200181617F
:1022C000816901F020010491816941F0040181617B
:1022D000816901F004010491816941F00801816183
:1022E0008069012500F00800049046F29F000090EC
:1022F000694602950D48FEF7AFFE0420CDE90004C3
:102300000B4E694630460294FEF7A6FEF0208DE89B
:10231000310069463046FEF79FFE0122C02130465B
:10232000FEF79BFF06B070BD001002400010014098
:102330000008014010B596B000240F941094119439
:10234000129413941C2168461494FDF75FFF20211A
:1023500007A8FDF75BFF2D482B4901600121C0E96B
:1023600001142C21C0E9031444618461FFF7F0FAE1
:1023700008B1FEF79DF84FF480500F900FA9234845
:10238000FFF7A4FB08B1FEF793F82048FFF7D9FC4C
:1023900008B1FEF78DF8139413A91C481494FFF7A5
:1023A00099FA08B1FEF784F8602000901420CDE976
:1023B000010403940494059400226946134806948A
:1023C000FFF75CFC08B1FEF773F8042269460F487A
:1023D0000194FFF753FC08B1FEF76AF807940894DC
:1023E00009944FF400500A94CDE90B4007A907481F
:1023F0000E94FFF745FA08B1FEF75AF80348FFF7C5
:10240000D1FB16B010BD0000002C01407800002068
:1024100010B58EB000240794089409940A940B9484
:102420001C2168460C94FDF7F1FE22484FF08041D4
:1024300001600121C0E901142C21C0E90314846169
:10244000FFF786FA08B1FEF733F84FF48050079093
:1024500007A91848FFF73AFB08B1FEF729F8154815
:10246000FFF76FFC08B1FEF723F80B940BA9114896
:102470000C94FFF72FFA08B1FEF71AF860200090CD
:102480000F20CDE90104002269460A480494FFF7B1
:10249000F5FB08B1FEF70CF80422694605480194E3
:1024A000FFF7ECFB08B1FEF703F80248FFF77AFBF1
:1024B0000EB010BDC000002010B58AB000240794F3
:1024C0001C2168460894FDF7A1FE164814490160D6
:1024D0000121C0E901142C21C0E903148461FFF734
:1024E00030FC08B1FDF7E4FF079407A90D480894F4
:1024F000FFF7F0F908B1FDF7DBFF60200090142032
:10250000CDE901040022694606480494FFF7B6FBB2
:1025100008B1FDF7CDFF0348FFF744FB0AB010BD3B
:10252000000400400801002010B58AB00024079480
:102530001C2168460894FDF769FE1648144901609D
:102540000121C0E901142D21C0E903148461FFF7C2
:10255000F8FB08B1FDF7ACFF079407A90D480894F4
:10256000FFF7B8F908B1FDF7A3FF6020CDE900043B
:1025700002940022694607480494FFF77FFB08B1E4
:10258000FDF796FF0348FFF70DFB0AB010BD0000F2
:102590000008004050010020FEE7FEE7704770B5DC
:1025A00014460D46064600F050FB224629463046AA
:1025B00000F076FB22462946304600F02FFB2246EB
:1025C00029463046BDE8704000F0D4BB7047FEF7A6
:1025D0004FBE30B58FB028216846FDF717FE142195
:1025E0000AA8FDF713FE01210804CDE9001000241C
:1025F000029402250491CDE907504FF4E0100990B0
:102600006846FEF799FF08B172B6FEE70F20CDE9E4
:102610000A054FF48060CDE90C4002210AA80E940F
:10262000FEF7BEFE002801D072B6FEE70FB030BD47
:1026300070470000F0B502681C4B1D4D1D4E1E4F2B
:102640001E4C4FF0804C984209D0A04207D0604504
:1026500005D0A84203D0B04201D0B84204D122F044
:10266000700E4A6842EA0E02984209D0A04207D092
:10267000604505D0A84203D0B04201D0B84203D192
:1026800022F44075CA682A434D6922F080022A4329
:1026900002608A68C2620A688262984201D0A042DF
:1026A00001D10969016301214161F0BD002C0140A4
:1026B0000004004000080040000C004000340140CD
:1026C00010B501F01F030121046A99408C43046294
:1026D000016A9A401143016210BD10B5446A01219C
:1026E000626A824205D121778069F8B984F83E1088
:1026F0001CE0A26A824206D1022222778069A8B930
:1027000084F83F1012E0E26A824206D10422227766
:10271000806958B984F8401008E0226B824205D1E4
:1027200008222277806908B984F841102046FFF713
:10273000ABFB0020207710BD10B5446A616A81426E
:1027400001D101200DE0A16A814201D1022008E0FF
:10275000E16A814201D1042003E0216B814201D171
:10276000082020772046FFF790FB0020207710BD3F
:1027700010B5446A0121626A824203D1217784F84C
:102780003E1019E0A26A824204D10220207784F828
:102790003F1011E0E26A824204D10420207784F8DD
:1027A000401009E0226B824204D10820207784F88F
:1027B000411001E084F83D102046FFF7F2F90020B7
:1027C000207710BD10B5846842EA032224F47F44C8
:1027D0000A432243826010BD826822F070020A43DD
:1027E00042F0070181607047F0B5026A22F00102F1
:1027F0000262036A42688469124E24F073050C6811
:102800002C4323F002058B682B430D4DA84201D0C9
:10281000B04205D123F00807CB683B4323F0040303
:10282000A84201D0B04205D14D6922F4407215434F
:102830008A692A4342608461496841630362F0BD4A
:10284000002C014000340140F0B5026A22F0100271
:102850000262026A436884690D6824F4E64444EA2B
:1028600005248D6822F0200242EA05120F4D104E19
:10287000A84201D0B04206D1CF6822F0800242EADD
:10288000071222F04002A84201D0B04207D14D69A0
:1028900023F4406343EA85038D6943EA850343607B
:1028A0008461496881630262F0BD0000002C014030
:1028B00000340140F0B5026A22F480720262026ABA
:1028C0004368C46922F4007224F073050C68124E48
:1028D0002C438D6842EA05220E4DA84201D0B04239
:1028E00006D1CF6822F4006242EA072222F4806215
:1028F000A84201D0B04207D14D6923F4405343EAC6
:1029000005138D6943EA05134360C4614968C163D7
:102910000262F0BD002C01400034014030B5026A73
:1029200022F480520262046A4268C3690D6823F48B
:10293000E64343EA05238D6824F4005444EA053451
:10294000084DA84202D0084DA84204D14D6922F496
:10295000804242EA85124260C361496801640462B0
:1029600030BD0000002C01400034014010B5036A66
:10297000046A24F001040462846924F0F00444EA47
:10298000021423F00A020A438461026210BD10B5EA
:10299000036A23F0100303628369046A23F470431B
:1029A00043EA023224F0A00343EA0111826101628A
:1029B00010BD00000148FDF7E9BE000050000020F6
:1029C000FEE7090441EA0020104370472DE9F04179
:1029D00016468846B0F5967F16D20C4F002400EBC1
:1029E00040051A4631464046FFF7EBFFA040000283
:1029F00001D51E2000E00F2004EBC501641CE4B2E9
:102A000027F81100182CECD3BDE8F081300300202A
:102A10002DE9F04116468846B0F5897F16D80C4F4F
:102A2000002400EB40051A4631464046FFF7C9FF37
:102A3000A040000201D51E2000E00F2004EBC501DC
:102A4000641CE4B227F81100182CECD3BDE8F08127
:102A5000706200202DE9F041164688464D2816D2B6
:102A60000C4F002400EB40051A4631464046FFF764
:102A7000A8FFA040000201D51E2000E00F2004EBBB
:102A8000C501641CE4B227F81100182CECD3BDE892
:102A9000F0810000C09700202DE9F04116468846DD
:102AA0005C2816D20C4F002400EB40051A46314634
:102AB0004046FFF786FFA040000201D51E2000E03F
:102AC0000F2004EBC501641CE4B227F81100182C98
:102AD000ECD3BDE8F0810000704F00202DE9F041FB
:102AE00016468846582816D20C4F002400EB4005A5
:102AF0001A4631464046FFF764FFA040000201D568
:102B00001E2000E00F2004EBC501641CE4B227F88E
:102B10001100182CECD3BDE8F0810000303D0020FE
:102B200000210B4A0F2341F6C81000BF22F81130D4
:102B3000491C89B28142F9D3002341F6A82100BF84
:102B400022F81030401C80B28842F9D300F002B85D
:102B50007062002041F6A823024A00210248FFF7D4
:102B600095B9000070620020C000002040F61803F4
:102B7000024A04210248FFF789B90000C0970020EB
:102B8000780000204FF41863024A04210248FFF73E
:102B90007DB90000704F0020C00000204FF4126388
:102BA000024A00210248FFF771B90000303D0020C1
:102BB000080100204FF4E853024A00210248FFF7C1
:102BC00065B9000030030020780000202DE9F041B5
:102BD00015460E46074600242B4632463946204607
:102BE000FFF738FF641CA4B24D2CF5D3BDE8F041CB
:102BF000FFF7BCBF2DE9F04115460E4607460024FD
:102C00002B46324639462046FFF746FF641CA4B2E5
:102C10005C2CF5D3BDE8F041FFF7B4BF2DE9F041DE
:102C200015460E46074600242B46324639462046B6
:102C3000FFF732FF0220FEF7FDF9641CA4B25C2C02
:102C4000F2D3BDE8F041FFF79DBF2DE9F0411546F5
:102C50000E46074600242B46324639462046FFF7EB
:102C6000F9FE0320FEF7E6F9641CA4B24D2CF2D362
:102C7000BDE8F041FFF77ABF2DE9F04115460E4659
:102C8000074600242B46324639462046FFF726FFEA
:102C9000641CA4B2582CF5D3BDE8F041FFF77EBF09
:102CA0002DE9F04115460E46074600242B463246D4
:102CB00039462046FFF712FF0220FEF7BBF9641CDD
:102CC000A4B2582CF2D3BDE8F041FFF767BF000073
:102CD000F0B587B000246B460D0601D51E2500E037
:102CE0000F251D554906641C090EA4B2082CF3D308
:102CF0000021040601D51E2400E00F245D184006C3
:102D0000491C000E89B22C720829F2D3002011064A
:102D100001D51E2100E00F211C18401C2174510612
:102D20000A0E80B20828F2D3114A00214FF496759A
:102D3000002001EB41041E5C00EBC407401C80B284
:102D400022F817601828F6D3491C89B2A942EFD39C
:102D50004FF4E15000214FF4E85300BF22F8101067
:102D6000401C80B29842F9D3FFF724FF07B0F0BDB2
:102D7000300300202DE9F04116460F46804600241E
:102D80004FF4967533463A4641462046FFF71EFEFD
:102D90000220FEF74FF9641CA4B2AC42F2D3BDE8A6
:102DA000F041FFF707BF70B50646144613460D46BF
:102DB0000A4600203146FFF72BFE0C2023462A4608
:102DC0003146FFF725FE192023462A463146FFF7F4
:102DD0001FFE262023462A463146FFF719FE3220E1
:102DE00023462A463146FFF713FE3D2023462A4656
:102DF0003146FFF70DFE482023462A463146FFF7AD
:102E000007FE542023462A463146FFF701FE5F2085
:102E100023462A463146FFF7FBFD692023462A4612
:102E20003146FFF7F5FD732023462A463146FFF76A
:102E3000EFFD7D2023462A463146FFF7E9FD872036
:102E400023462A463146FFF7E3FD902023462A46D3
:102E50003146FFF7DDFD982023462A463146FFF72D
:102E6000D7FDA12023462A463146FFF7D1FDAA20EF
:102E700023462A463146FFF7CBFDB22023462A4699
:102E80003146FFF7C5FDB92023462A463146FFF7F4
:102E9000BFFDE62023462A463146FFF7B9FDE12073
:102EA00023462A463146FFF7B3FDF02023462A4643
:102EB0003146FFF7ADFDC02023462A463146FFF7D5
:102EC000A7FDEB2023462A463146FFF7A1FDBDE8CA
:102ED0007040FFF73FBE2DE9F04115460E4607460C
:102EE00000242B46324639462046FFF791FD032049
:102EF000FEF7A0F8641CA4B2E02CF2D3BDE8F041C8
:102F0000FFF728BE2DE9F04116460F468046F5240E
:102F10004FF4827533463A4641462046FFF778FD26
:102F2000641CA4B2AC42F5D3BDE8F041FFF712BE79
:102F30002DE9F04115460E460746AA242B46324697
:102F400039462046FFF764FD641CA4B2C82CF5D3B3
:102F5000BDE8F041FFF7FEBD2DE9F04115460E46F4
:102F6000074687242B46324639462046FFF750FD58
:102F7000641CA4B2AA2CF5D3BDE8F041FFF7EABD6A
:102F80002DE9F04116460F4680464FF482744FF407
:102F9000867533463A4641462046FFF739FD641CA4
:102FA000A4B2AC42F5D3BDE8F041FFF7D3BD2DE9A3
:102FB000F04115460E46074600242B463246394658
:102FC0002046FFF725FD641CA4B2322CF5D3BDE8E2
:102FD000F041FFF7BFBD2DE9F04115460E4607460B
:102FE000E1242B46324639462046FFF711FD641C8A
:102FF000A4B2F52CF5D3BDE8F041FFF7ABBD2DE948
:10300000F04115460E460746C8242B46324639463F
:103010002046FFF7FDFC641CA4B2E12CF5D3BDE80B
:10302000F041FFF797BD2DE9F0414FF48674164645
:103030000F468046251D33463A4641462046FFF757
:10304000E7FC641CA4B2AC42F5D3BDE8F041FFF745
:1030500081BD2DE9F04115460E4607465F242B46FB
:10306000324639462046FFF7D3FC641CA4B2872CB5
:10307000F5D3BDE8F041FFF76DBD2DE9F0411546F0
:103080000E46074632242B46324639462046FFF785
:10309000BFFC641CA4B25F2CF5D3BDE8F041FFF780
:1030A00059BD0907090E002804DB00F1E02080F873
:1030B0000014704700F00F0000F1E02080F8141DAC
:1030C00070470000F0B5421802EB4203DC00544B9D
:1030D0000F26D51C9C80534C05EB450705E0002DC1
:1030E00001DB24F815606D1C9D80B3F90450B5EB2D
:1030F000C70FF4DB551D05EB4505ED0047180837F4
:103100009D8007EB470C05E0002D01DB24F81560DE
:103110006D1C9D80B3F90450B5EBCC0FF4DB07EBCD
:103120004705ED009D8002F10A0505EB450505E028
:10313000002F01DB24F817607F1C9F80B3F9047017
:10314000B7EBC50FF4DB02F10E0505EB4505ED000D
:10315000084410309D8000EB400105E0002D01DBAC
:1031600024F815606D1C9D80B3F90450B5EBC10FB8
:10317000F4DB00EB4000C000988002F1110000EB8E
:10318000400105E0002801DB24F81060401C988015
:10319000B3F90400B0EBC10FF4DB02F1170000EB50
:1031A0004000C000988002F1180000EB400105E0EB
:1031B000002801DB24F81060401C9880B3F904005B
:1031C000B0EBC10FF4DB02F11B0000EB4000C000CC
:1031D000988002F11D0000EB400105E0002801DBB2
:1031E00024F81060401C9880B3F90400B0EBC10FC4
:1031F000F4DB02F1220000EB4000C0002632988090
:1032000002EB420105E0002801DB24F81060401CBD
:103210009880B3F90400B0EBC10FF4DBF0BD0000FF
:103220001C0000203003002007490A7802704A7809
:1032300042708A788270CA78C2700A7902714A79BB
:1032400042718979817170472C000020FEF718F8CF
:10325000FFF7BFF9FFF722F8FEF7E2FFFEF7BEFF28
:10326000FFF7D6F8FFF728F9FFF764F8FFF75CF9E6
:10327000FDF7B6F8FE48FDF72CF80022114610467F
:10328000FFF7B8FC002211461046FFF79FFC002212
:1032900011461046FFF71CFD002211461046FFF7AD
:1032A000EBFCFFF73DFCF54CDFF8C883DFF8C89373
:1032B000DFF8CCB3EE4DF34F04F10A0A4FF400519E
:1032C00046464046FDF7C4FF20704FF4804130462B
:1032D000FDF7BEFF607001213046FDF7B9FFA07019
:1032E00002213046FDF7B4FFE07004213046FDF7BF
:1032F000AFFF207108213046FDF7AAFF6071102151
:103300004E464846FDF7A4FFA07120213046FDF748
:103310009FFFE07140213046FDF79AFF2072802127
:103320003046FDF795FF607297F8220000287CD1A7
:1033300097F8200085F8200095F82110884238D0B1
:103340000026ABF80460ABF80660ABF808603246C4
:1033500031463046FFF74EFC002211461046FFF77B
:1033600035FC002211461046FFF7B2FC0022114640
:103370001046FFF781FC85F8236085F8226085F808
:103380002760FFF7CDFB8AF800608AF801608AF8B1
:1033900002608AF803608AF804608AF805608AF897
:1033A00006608AF807608AF808608AF80960ABF856
:1033B000006095F8200085F82100F87FA0BB00226E
:1033C00011461046FFF716FC002211461046FFF783
:1033D0007FFC002211461046FFF74EFC00221146EA
:1033E0001046FFF7F3FBFFF79BFB002085F8230057
:1033F00085F8220085F827008AF800008AF8010085
:103400008AF802008AF803008AF804008AF80500A6
:103410008AF806008AF807008AF808008AF8090086
:10342000ABF80000ABF8080000E01AE395F82000C4
:1034300001287CD195F82200002857D195F8230067
:10344000002875D1F87F012873D100219622084603
:10345000FFF7A9FC002196220846FFF70EFE002187
:1034600096220846FFF7CBFD002196220846FFF77B
:1034700087FDBBF800005E46322801D8401C308032
:1034800080B21E280FD80022962311461046FEF760
:103490002DFE002196220846FFF7EEFB0021962222
:1034A0000846FFF7A7FB3088322809D30421764865
:1034B000FEF7BAFD00217548FEF7B6FD33203080D7
:1034C0002078A0B1607890B1A07880B1E07870B138
:1034D000207960B1607950B1A07940B1E07930B124
:1034E000207A20B1607A10B10020308195E001206F
:1034F00085F822003089401C3081FFF711FB3089AC
:10350000002848D02078A8B16078B8B1A078C8B1B8
:10351000E078D8B12079E8B16079F8B1A07908B342
:10352000E07918B3207A28B3607A38B329E0CBE089
:103530007CE08EE101208AF8000026E001208AF874
:1035400001001EE001208AF802001AE001208AF83A
:10355000030016E001208AF8040012E001208AF836
:1035600005000EE001208AF806000AE001208AF832
:10357000070006E001208AF8080002E001208AF82E
:1035800009009AF80010504631B19AF8010058B17C
:1035900000208AF8010040E0417829B1817869B1C2
:1035A00000218AF8021038E09AF80210504629B13A
:1035B000C17859B100218AF803102EE0C17829B1F1
:1035C000017959B100218AF8041026E0017929B166
:1035D000417959B100218AF805101EE0417929B1DD
:1035E000817959B100218AF8061016E0817929B154
:1035F000C17959B100218AF807100EE0C17929B1CB
:10360000017A51B100218AF8081006E0017A21B14F
:10361000417A11B100218AF8091095F82200012899
:1036200004D1387F10B9F87F012804D095F8230021
:10363000012809D08DE0012085F823000021ABF896
:103640000010ABF8021001E0387FE8BB00219622A1
:103650000846FFF73DFB002196220846FFF7B6FA21
:103660009AF800005646012815D1962200210FE055
:103670003DA8002000100140000801403C0000204F
:10368000000000201AA80020C0000020080100202F
:103690000846FFF78CFC7078012804D1002196229F
:1036A0000846FFF7EAFCB078012804D100219622F1
:1036B0000846FFF7CEFCF078012804D100219622BD
:1036C0000846FFF749FC00E043E03079012804D1C7
:1036D000002196220846FFF72BFC7079012804D1BF
:1036E000002196220846FFF78AFCB079012804D110
:1036F000002196220846FFF76EFCF079012804D1DC
:10370000002196220846FFF7FDFB307A012804D1FC
:10371000002196220846FFF733FC707A012818D161
:10372000002196220846FFF77EFC002196220846DB
:10373000FFF7E8FB002196220846FFF760FC002116
:1037400096220846FFF708FC002196220846FFF75C
:1037500094FC95F8200000287BD195F822000028E1
:1037600057D195F82300002874D1F87F0128F3D1B0
:10377000002211469620FFF716FB002211469620E4
:10378000FFF77BFC002211469620FFF738FC002251
:1037900011469620FFF7F4FBBBF800005E46462872
:1037A00001D8401C308080B228280FD800231A4648
:1037B00096211846FEF79AFC002211469620FFF744
:1037C0005BFA002211469620FFF714FA308846284B
:1037D00009D30421BA48FEF727FC0021B948FEF7B7
:1037E00023FC472030802078A0B1607890B1A07889
:1037F00080B1E07870B1207960B1607950B1A07982
:1038000040B1E07930B1207A20B1607A10B1002067
:10381000308193E0012085F822003089401C3081FE
:10382000FFF77EF9308970B32078A0B16078B0B12D
:10383000A078C0B1E078D0B12079E0B16079F0B182
:10384000A07908B3E07918B3207A28B3607A38B346
:1038500029E0CBE07BE001208AF8000027E001208E
:103860008AF801001FE001208AF802001BE0012015
:103870008AF8030017E001208AF8040013E0012011
:103880008AF805000FE059E001208AF806000AE0F6
:1038900001208AF8070006E001208AF8080002E00B
:1038A00001208AF809009AF80010504639B19AF8B8
:1038B0000110504659B100218AF801103EE04178CC
:1038C00029B1817859B100218AF8021036E0817857
:1038D00029B1C17859B100218AF803102EE0C178CE
:1038E00029B1017959B100218AF8041026E0017943
:1038F00029B1417959B100218AF805101EE04179BA
:1039000029B1817959B100218AF8061016E0817930
:1039100029B1C17959B100218AF807100EE0C179A7
:1039200029B1017A51B100218AF8081006E0017A24
:1039300021B1417A11B100218AF8091095F82200CD
:10394000012804D1387F10B9F87F012804D095F8F8
:103950002300012809D081E0012085F82300002000
:10396000ABF80000ABF8020001E0387FF0BB0022AA
:1039700011469620FFF7ACF900221146FF20FFF711
:1039800039F9002211469620FFF720F99AF8000035
:103990005646012804D1002211469620FFF707FB66
:1039A0007078012804D1002211469620FFF765FBAC
:1039B000B078012804D1002211469620FFF749FB78
:1039C000F078012804D1002211469620FFF7C4FAAE
:1039D0003079012804D1002211469620FFF7A8FA79
:1039E0007079012806D10022114600E036E09620C9
:1039F000FFF705FBB079012804D10022114696207B
:103A0000FFF7E9FAF079012804D100221146962047
:103A1000FFF778FA307A012804D100221146962067
:103A2000FFF7AEFA707A012818D1002211469620CD
:103A3000FFF7F9FA002211469620FFF763FA0022F9
:103A400011469620FFF7DBFA002211469620FFF779
:103A500083FA002211469620FFF70FFB97F8220009
:103A600048B3FFF75DF8662199220846FEF797FDF7
:103A700000226621FF20FFF72EFA00221146104691
:103A8000FEF78DFD002211461046FFF724FA37227B
:103A90009B211520FFF71FFA002233211046FEF765
:103AA0007EFD002211461046FEF779FD00221146E8
:103AB0001046FFF710FA0120FDF7BCFAFFF7FEBB36
:103AC000C0000020080100200000000000000000ED
:103AD0000102030406070809F83A00080000002064
:103AE0003C0000006C010008343B00083C00002052
:103AF0008CAE0000880100080000000000000000FB
:103B000000000000010000001000000000000000A4
:103B10000024F4000000000000000000000000008D
:103B20000000000000000000000000000000000095
:043B30000000000091
:0400000508000131BD
:00000001FF
